0100030ALEXANDER CITY SCH DIST       000000000008000000000000000000000260000000003362000000003622000000000000000000000009000000000180000000000189000000000002000000000049000000000000000000000000
0100060ANDALUSIA CITY SCH DIST       000000000005000000000000000000000188000000002028000000002216000000000000000000000009000000000111000000000120000000000020000000000045000000000000000000000000
0100090ANNISTON CITY SCH DIST        000000000010000000000000000000000289000000004307000000004596000000000000000000000014000000000229000000000243000000000020000000000155000000000000000000000000
0100100ARAB CITY SCH DIST            000000000005000000000000000000000129000000002321000000002450000000000000000000000006000000000114000000000120000000000004000000000049000000000000000000000000
0100120ATHENS CITY SCH DIST          000000000006000000000000000000000223000000002424000000002647000000000000000000000010000000000129000000000139000000000010000000000076000000000000000000000000
0100180ATTALLA CITY SCH DIST         000000000006000000000000000000000149000000002342000000002491000000000000000000000006000000000120000000000126000000000005000000000067000000000000000000000000
0100210AUBURN CITY SCH DIST          000000000008000000000000000000000242000000002909000000003151000000000000000000000010000000000168000000000178000000000021000000000088000000000000000000000000
0100240AUTAUGA COUNTY SCH DIST       000000000011000000000000000000000429000000006199000000006628000000000000000000000018000000000304000000000322000000000017000000000115000000000000000000000000
0100270BALDWIN COUNTY SCH DIST       000000000023000000000000000000001117000000014802000000015919000000000000000000000052000000000713000000000765000000000042000000000329000000000000000000000100
0100300BARBOUR COUNTY SCH DIST       000000000008000000000000000000000180000000002142000000002322000000000000000000000008000000000123000000000131000000000029000000000050000000000000000000000000
0100330BESSEMER CITY SCH DIST        000000000013000000000000000000000450000000004899000000005349000000000000000000000022000000000252000000000274000000000040000000000149000000000000000000000000
0100360BIBB COUNTY SCH DIST          000000000009000000000000000000000251000000003093000000003344000000000000000000000012000000000146000000000158000000000006000000000069000000000000000000000000
0100390BIRMINGHAM CITY SCH DIST      000000000101000000000000000000003359000000040413000000043772000000000000000000000143000000001970000000002113000000000191000000001331000000000000000000000100
0100420BLOUNT COUNTY SCH DIST        000000000010000000000000000000000374000000005832000000006206000000000000000000000016000000000283000000000299000000000013000000000108000000000000000000000000
0100450BREWTON CITY SCH DIST         000000000004000000000000000000000116000000001495000000001611000000000000000000000005000000000086000000000091000000000013000000000039000000000000000000000000
0100480BULLOCK COUNTY SCH DIST       000000000005000000000000000000000145000000001884000000002029000000000000000000000007000000000095000000000102000000000006000000000053000000000000000000000000
0100510BUTLER COUNTY SCH DIST        000000000010000000000000000000000391000000004040000000004431000000000000000000000016000000000220000000000236000000000018000000000100000000000000000000000000
0100540CALHOUN COUNTY SCH DIST       000000000019000000000000000000000781000000010760000000011541000000000000000000000030000000000512000000000542000000000022000000000240000000000000000000000000
0100570CARBON HILL CITY SCH DIST     000000000004000000000000000000000077000000000958000000001035000000000000000000000003000000000043000000000046000000000003000000000019000000000000000000000000
0100600CHAMBERS COUNTY SCH DIST      000000000013000000000000000000000384000000005195000000005579000000000000000000000018000000000262000000000280000000000051000000000137000000000000000000000000
0100630CHEROKEE COUNTY SCH DIST      000000000008000000000000000000000249000000003691000000003940000000000000000000000010000000000174000000000184000000000013000000000084000000000000000000000000
0100660CHILTON COUNTY SCH DIST       000000000011000000000000000000000433000000005595000000006028000000000000000000000019000000000274000000000293000000000022000000000133000000000000000000000100
0100690CHOCTAW COUNTY SCH DIST       000000000009000000000000000000000264000000003157000000003421000000000000000000000012000000000165000000000177000000000044000000000077000000000000000000000000
0100720CLARKE COUNTY SCH DIST        000000000010000000000000000000000335000000003974000000004309000000000000000000000015000000000183000000000198000000000028000000000097000000000000000000000000
0100750CLAY COUNTY SCH DIST          000000000009000000000000000000000216000000002715000000002931000000000000000000000009000000000142000000000151000000000009000000000059000000000000000000000000
0100780CLEBURNE COUNTY SCH DIST      000000000006000000000000000000000190000000002209000000002399000000000000000000000007000000000106000000000113000000000013000000000057000000000000000000000000
0100810COFFEE COUNTY SCH DIST        000000000006000000000000000000000133000000001831000000001964000000000000000000000006000000000091000000000097000000000006000000000045000000000000000000000000
0100840COLBERT COUNTY SCH DIST       000000000017000000000000000000000263000000003956000000004219000000000000000000000013000000000236000000000249000000000025000000000112000000000000000000000100
0100870CONECUH COUNTY SCH DIST       000000000008000000000000000000000248000000002650000000002898000000000000000000000010000000000129000000000139000000000012000000000069000000000000000000000000
0100900COOSA COUNTY SCH DIST         000000000008000000000000000000000135000000001996000000002131000000000000000000000007000000000101000000000108000000000022000000000056000000000000000000000000
0100930COVINGTON COUNTY SCH DIST     000000000007000000000000000000000186000000002538000000002724000000000000000000000009000000000139000000000148000000000006000000000118000000000000000000000000
0100960CRENSHAW COUNTY SCH DIST      000000000005000000000000000000000186000000002580000000002766000000000000000000000009000000000133000000000142000000000009000000000048000000000000000000000000
0100990CULLMAN CITY SCH DIST         000000000005000000000000000000000147000000002340000000002487000000000000000000000006000000000118000000000124000000000013000000000069000000000000000000000000
0101020CULLMAN COUNTY SCH DIST       000000000017000000000000000000000435000000008283000000008718000000000000000000000018000000000404000000000422000000000015000000000175000000000000000000000000
0101050DALE COUNTY SCH DIST          000000000007000000000000000000000197000000002531000000002728000000000000000000000009000000000140000000000149000000000008000000000061000000000000000000000000
0101080DALEVILLE CITY SCH DIST       000000000003000000000000000000000094000000001229000000001323000000000000000000000004000000000065000000000069000000000003000000000027000000000000000000000000
0101110DALLAS COUNTY SCH DIST        000000000013000000000000000000000388000000004926000000005314000000000000000000000017000000000237000000000253000000000014000000000142000000000000000000000000
0101140DE KALB COUNTY SCH DIST       000000000015000000000000000000000580000000007650000000008230000000000000000000000026000000000374000000000399000000000024000000000165000000000000000000000000
0101170DECATUR CITY SCH DIST         000000000017000000000000000000000528000000007590000000008118000000000000000000000027000000000414000000000441000000000038000000000218000000000000000000000000
0101200DEMOPOLIS CITY SCH DIST       000000000004000000000000000000000129000000001845000000001974000000000000000000000006000000000083000000000089000000000007000000000027000000000000000000000000
0101230DOTHAN CITY SCH DIST          000000000018000000000000000000000795000000008741000000009536000000000000000000000032000000000413000000000445000000000014000000000230000000000000000000000000
0101260ELBA CITY SCH DIST            000000000004000000000000000000000099000000001190000000001289000000000000000000000005000000000067000000000072000000000007000000000034000000000000000000000000
0101290ELMORE COUNTY SCH DIST        000000000011000000000000000000000539000000006714000000007253000000000000000000000025000000000317000000000342000000000019000000000147000000000000000000000000
0101320ENTERPRISE CITY SCH DIST      000000000010000000000000000000000366000000004831000000005197000000000000000000000016000000000235000000000251000000000014000000000108000000000000000000000000
0101350ESCAMBIA COUNTY SCH DIST      000000000016000000000000000000000447000000005250000000005697000000000000000000000019000000000284000000000303000000000017000000000178000000000000000000000100
0101380ETOWAH COUNTY SCH DIST        000000000020000000000000000000000588000000008472000000009060000000000000000000000027000000000403000000000430000000000020000000000189000000000000000000000000
0101410EUFAULA CITY SCH DIST         000000000006000000000000000000000204000000002443000000002647000000000000000000000010000000000118000000000128000000000015000000000069000000000000000000000000
0101440FAIRFIELD CITY SCH DIST       000000000008000000000000000000000142000000001611000000001753000000000000000000000006000000000086000000000092000000000009000000000057000000000000000000000000
0101470FAYETTE COUNTY SCH DIST       000000000007000000000000000000000250000000002954000000003204000000000000000000000012000000000153000000000165000000000007000000000077000000000000000000000000
0101500FLORALA CITY SCH DIST         000000000002000000000000000000000037000000000260000000000297000000000000000000000002000000000014000000000016000000000001000000000006000000000000000000000000
0101530FLORENCE CITY SCH DIST        000000000010000000000000000000000397000000005290000000005687000000000000000000000017000000000284000000000301000000000003000000000186000000000000000000000000
0101560FORT PAYNE CITY SCH DIST      000000000004000000000000000000000148000000002042000000002190000000000000000000000007000000000092000000000099000000000004000000000038000000000000000000000000
0101590FRANKLIN COUNTY SCH DIST      000000000007000000000000000000000222000000003042000000003264000000000000000000000011000000000153000000000164000000000004000000000055000000000000000000000000
0101620GADSDEN CITY SCH DIST         000000000017000000000000000000000462000000006521000000006983000000000000000000000021000000000347000000000368000000000026000000000199000000000000000000000000
0101640GENEVA CITY SCH DIST          000000000003000000000000000000000115000000001164000000001279000000000000000000000005000000000064000000000069000000000010000000000029000000000000000000000000
0101660GENEVA COUNTY SCH DIST        000000000005000000000000000000000252000000003190000000003442000000000000000000000008000000000110000000000118000000000014000000000060000000000000000000000000
0101680GREENE COUNTY SCH DIST        000000000007000000000000000000000184000000002163000000002347000000000000000000000007000000000133000000000140000000000026000000000067000000000000000000000000
0101690GUNTERSVILLE CITY SCH DIST    000000000005000000000000000000000156000000001817000000001973000000000000000000000006000000000095000000000101000000000008000000000043000000000000000000000000
0101710HALE COUNTY SCH DIST          000000000010000000000000000000000276000000003099000000003375000000000000000000000013000000000164000000000177000000000016000000000083000000000000000000000000
0101720HALEYVILLE CITY SCH DIST      000000000005000000000000000000000153000000001681000000001834000000000000000000000007000000000091000000000098000000000008000000000043000000000000000000000000
0101730HARTSELLE CITY SCH DIST       000000000005000000000000000000000201000000002711000000002912000000000000000000000009000000000129000000000138000000000011000000000076000000000000000000000000
0101740HENRY COUNTY SCH DIST         000000000008000000000000000000000232000000003033000000003265000000000000000000000011000000000164000000000175000000000008000000000079000000000000000000000000
0101760HOMEWOOD CITY SCH DIST        000000000006000000000000000000000214000000002262000000002476000000000000000000000013000000000145000000000158000000000001000000000081000000000000000000000000
0101770HOUSTON COUNTY SCH DIST       000000000009000000000000000000000423000000005025000000005448000000000000000000000019000000000263000000000282000000000009000000000117000000000000000000000000
0101800HUNTSVILLE CITY SCH DIST      000000000039000000000000000000001640000000023912000000025552000000000000000000000074000000001248000000001321000000000120000000000640000000000000000000000100
0101830JACKSON COUNTY SCH DIST       000000000018000000000000000000000518000000006417000000006935000000000000000000000024000000000315000000000339000000000025000000000158000000000000000000000000
0101860JACKSONVILLE CITY SCH DIST    000000000003000000000000000000000117000000001779000000001896000000000000000000000006000000000083000000000089000000000006000000000043000000000000000000000000
0101890JASPER CITY SCH DIST          000000000006000000000000000000000196000000002778000000002974000000000000000000000009000000000140000000000149000000000013000000000068000000000000000000000000
0101920JEFFERSON COUNTY SCH DIST     000000000075000000000000000000002870000000043238000000046108000000000000000000000123000000002139000000002262000000000063000000000850000000000000000000000000
0101950LAMAR COUNTY SCH DIST         000000000006000000000000000000000265000000003276000000003541000000000000000000000011000000000154000000000165000000000009000000000074000000000000000000000000
0101980LANETT CITY SCH DIST          000000000004000000000000000000000112000000001458000000001570000000000000000000000005000000000070000000000075000000000005000000000036000000000000000000000000
0102010LAUDERDALE COUNTY SCH DIST    000000000016000000000000000000000557000000007751000000008308000000000000000000000023000000000396000000000419000000000030000000000189000000000000000000000100
0102040LAWRENCE COUNTY SCH DIST      000000000016000000000000000000000480000000006245000000006725000000000000000000000023000000000322000000000345000000000019000000000142000000000000000000000000
0102070LEE COUNTY SCH DIST           000000000009000000000000000000000316000000005083000000005399000000000000000000000013000000000249000000000262000000000012000000000096000000000000000000000000
0102100LIMESTONE COUNTY SCH DIST     000000000014000000000000000000000456000000006456000000006912000000000000000000000023000000000336000000000359000000000021000000000127000000000000000000000000
0102130LINDEN CITY SCH DIST          000000000005000000000000000000000051000000000729000000000780000000000000000000000003000000000047000000000050000000000003000000000021000000000000000000000000
0102160LOWNDES COUNTY SCH DIST       000000000009000000000000000000000193000000002723000000002916000000000000000000000008000000000164000000000172000000000017000000000095000000000000000000000000
0102190MACON COUNTY SCH DIST         000000000009000000000000000000000314000000004599000000004913000000000000000000000014000000000214000000000228000000000034000000000105000000000000000000000000
0102220MADISON COUNTY SCH DIST       000000000017000000000000000000000721000000009525000000010246000000000000000000000030000000000433000000000463000000000046000000000204000000000000000000000000
0102250MARENGO COUNTY SCH DIST       000000000005000000000000000000000191000000002139000000002330000000000000000000000009000000000122000000000131000000000009000000000062000000000000000000000000
0102280MARION CITY SCH DIST          000000000004000000000000000000000068000000000827000000000895000000000000000000000003000000000048000000000051000000000004000000000023000000000000000000000000
0102310MARION COUNTY SCH DIST        000000000013000000000000000000000324000000004323000000004647000000000000000000000014000000000212000000000226000000000053000000000086000000000000000000000100
0102340MARSHALL COUNTY SCH DIST      000000000019000000000000000000000637000000008062000000008699000000000000000000000025000000000375000000000400000000000036000000000193000000000000000000000000
0102350MIDFIELD CITY SCH DIST        000000000005000000000000000000000117000000001707000000001824000000000000000000000005000000000081000000000086000000000011000000000032000000000000000000000000
0102370MOBILE COUNTY SCH DIST        000000000086000000000000000000004686000000061395000000066081000000000000000000000203000000002827000000003029000000000274000000001650000000000000000000000100
0102400MONROE COUNTY SCH DIST        000000000012000000000000000000000461000000004909000000005370000000000000000000000018000000000244000000000262000000000030000000000121000000000000000000000000
0102430MONTGOMERY COUNTY SCHS        000000000050000000000000000000002354000000032278000000034632000000000000000000000103000000001630000000001733000000000095000000000849000000000000000000000000
0102480MORGAN COUNTY SCH DIST        000000000015000000000000000000000499000000006502000000007001000000000000000000000021000000000343000000000364000000000022000000000151000000000000000000000000
0102490MOUNTAIN BROOK CITY SCH DIST  000000000007000000000000000000000223000000003021000000003244000000000000000000000011000000000194000000000205000000000014000000000105000000000000000000000000
0102520MUSCLE SHOALS CITY SCH DIST   000000000005000000000000000000000128000000001705000000001833000000000000000000000006000000000073000000000079000000000004000000000045000000000000000000000000
0102550ONEONTA CITY SCH DIST         000000000002000000000000000000000067000000000957000000001024000000000000000000000003000000000049000000000052000000000002000000000027000000000000000000000000
0102580OPELIKA CITY SCH DIST         000000000009000000000000000000000254000000004122000000004376000000000000000000000011000000000200000000000211000000000038000000000106000000000000000000000000
0102610OPP CITY SCH DIST             000000000004000000000000000000000122000000001623000000001745000000000000000000000005000000000089000000000094000000000004000000000037000000000000000000000000
0102635OXFORD CITY SCH DIST          000000000004000000000000000000000110000000001809000000001919000000000000000000000004000000000085000000000089000000000008000000000046000000000000000000000000
0102640OZARK CITY SCH DIST           000000000007000000000000000000000218000000003460000000003678000000000000000000000010000000000188000000000198000000000008000000000088000000000000000000000000
0102650PELL CITY                     000000000006000000000000000000000160000000002937000000003097000000000000000000000007000000000132000000000139000000000019000000000067000000000000000000000000
0102670PERRY COUNTY SCH DIST         000000000007000000000000000000000167000000001976000000002143000000000000000000000007000000000101000000000108000000000016000000000056000000000000000000000000
0102700PHENIX CITY SCH DIST          000000000012000000000000000000000381000000004082000000004463000000000000000000000017000000000198000000000215000000000023000000000145000000000000000000000100
0102730PICKENS COUNTY SCH DIST       000000000010000000000000000000000344000000003848000000004192000000000000000000000016000000000187000000000203000000000023000000000088000000000000000000000000
0102760PIEDMONT CITY SCH DIST        000000000004000000000000000000000088000000001245000000001333000000000000000000000005000000000056000000000061000000000003000000000029000000000000000000000000
0102790PIKE COUNTY SCH DIST          000000000009000000000000000000000219000000002548000000002767000000000000000000000010000000000151000000000161000000000019000000000089000000000000000000000000
0102820RANDOLPH COUNTY SCH DIST      000000000007000000000000000000000176000000002274000000002450000000000000000000000008000000000116000000000124000000000016000000000056000000000000000000000000
0102850ROANOKE CITY SCH DIST         000000000005000000000000000000000079000000001373000000001452000000000000000000000004000000000066000000000070000000000006000000000029000000000000000000000000
0102880RUSSELL COUNTY SCH DIST       000000000008000000000000000000000262000000003337000000003599000000000000000000000012000000000159000000000171000000000025000000000072000000000000000000000000
0102910RUSSELLVILLE CITY SCH DIST    000000000006000000000000000000000164000000002080000000002244000000000000000000000007000000000101000000000108000000000004000000000059000000000000000000000000
0102940SCOTTSBORO CITY SCH DIST      000000000007000000000000000000000244000000003197000000003441000000000000000000000011000000000167000000000177000000000020000000000077000000000000000000000000
0102970SELMA CITY SCH DIST           000000000013000000000000000000000424000000005565000000005989000000000000000000000021000000000277000000000298000000000040000000000161000000000000000000000000
0103000SHEFFIELD CITY SCH DIST       000000000007000000000000000000000168000000001638000000001806000000000000000000000007000000000093000000000100000000000005000000000054000000000000000000000000
0103030SHELBY COUNTY SCH DIST        000000000022000000000000000000000848000000012038000000012886000000000000000000000036000000000561000000000597000000000024000000000286000000000000000000000000
0103062SAINT CLAIR COUNTY SCH DIST   000000000013000000000000000000000351000000005148000000005499000000000000000000000016000000000249000000000265000000000012000000000112000000000000100000000000
0103090SUMTER COUNTY SCH DIST        000000000009000000000000000000000208000000003140000000003348000000000000000000000008000000000170000000000178000000000002000000000062000000000000000000000000
0103120SYLACAUGA CITY DIST           000000000006000000000000000000000162000000002254000000002416000000000000000000000007000000000122000000000129000000000012000000000065000000000000000000000000
0103150TALLADEGA CITY SCH DIST       000000000010000000000000000000000310000000003809000000004119000000000000000000000012000000000181000000000193000000000019000000000099000000000000000000000100
0103180TALLADEGA COUNTY SCH DIST     000000000021000000000000000000000644000000008242000000008886000000000000000000000031000000000406000000000437000000000027000000000209000000000000000000000100
0103210TALLAPOOSA COUNTY SCH DIST    000000000009000000000000000000000252000000003671000000003923000000000000000000000012000000000183000000000195000000000006000000000074000000000000000000000000
0103240TALLASSEE CITY SCH DIST       000000000005000000000000000000000111000000001539000000001650000000000000000000000005000000000068000000000073000000000013000000000039000000000000000000000000
0103270TARRANT CITY SCH DIST         000000000004000000000000000000000132000000001339000000001471000000000000000000000005000000000077000000000082000000000012000000000047000000000000000000000000
0103300THOMASVILLE CITY SCH DIST     000000000004000000000000000000000083000000001366000000001449000000000000000000000005000000000072000000000077000000000011000000000029000000000000000000000000
0103330TROY CITY SCH DIST            000000000007000000000000000000000155000000002074000000002229000000000000000000000006000000000119000000000125000000000009000000000065000000000000000000000000
0103360TUSCALOOSA CITY SCH DIST      000000000022000000000000000000000849000000009026000000009875000000000000000000000038000000000508000000000546000000000033000000000316000000000000000000000100
0103390TUSCALOOSA COUNTY SCH DIST    000000000024000000000000000000000873000000012124000000012997000000000000000000000038000000000591000000000628000000000017000000000291000000000000000000000000
0103420TUSCUMBIA CITY SCH DIST       000000000006000000000000000000000093000000001441000000001534000000000000000000000005000000000079000000000084000000000013000000000037000000000000000000000000
0103430VESTAVIA HILLS SCH DIST       000000000005000000000000000000000170000000002988000000003158000000000000000000000010000000000157000000000167000000000014000000000078000000000000000000000000
0103450WALKER COUNTY SCH DIST        000000000026000000000000000000000713000000008674000000009387000000000000000000000029000000000436000000000465000000000026000000000191000000000000000000000000
0103480WASHINGTON COUNTY SCH DIST    000000000011000000000000000000000311000000003780000000004091000000000000000000000014000000000209000000000223000000000026000000000097000000000000000000000000
0103510WILCOX COUNTY SCH DIST        000000000013000000000000000000000243000000002855000000003098000000000000000000000010000000000155000000000165000000000007000000000077000000000000000000000000
0103540WINFIELD CITY SCH DIST        000000000003000000000000000000000083000000001156000000001239000000000000000000000004000000000063000000000067000000000004000000000028000000000000000000000000
0103580WINSTON COUNTY SCH DIST       000000000008000000000000000000000197000000002543000000002740000000000000000000000009000000000132000000000141000000000009000000000060000000000000000000000000
0200002ADAK REGION SCHOOLS           000000000002000000000001000000000062000000000540000000000603000000000000000000000003000000000040000000000043000000000003000000000042000000000000000001000000
0200010ALEUTIAN REGION SCH DIST      000000000006000000000000000000000007000000000119000000000126000000000000000000000000000000000019000000000019000000000004000000000013            000000110011
0200020BERING STRAIT SCH DIST        000000000016000000000044000000000100000000000865000000001009000000000001000000000005000000000086000000000092000000000049000000000080000000000000000000000000
0200030BRISTOL BAY BOROUGH SCH DIST  000000000002000000000000000000000020000000000190000000000210000000000001000000000001000000000021000000000022000000000006000000000014000000000000010001111100
0200050ALASKA GATEWAY SCH DIST       000000000007000000000000000000000039000000000410000000000449000000000000000000000001000000000042000000000043000000000012000000000020000000000000000000001000
0200060CORDOVA CITY SCH DIST         000000000001000000000000000000000037000000000364000000000401000000000000000000000001000000000032000000000033000000000008000000000018000000000000000000000000
0200070COPPER RIVER REAA SCH DIST    000000000007000000000003000000000039000000000487000000000529000000000000000000000001000000000041000000000042000000000007000000000015000000000000000001100000
0200090CRAIG CITY SCH DIST           000000000001000000000000000000000015000000000134000000000149000000000000000000000001000000000016000000000017000000000001000000000013000000000000000000000000
0200100DELTA GREELY SCH DIST         000000000003000000000025000000000080000000000803000000000908000000000001000000000003000000000061000000000064000000000008000000000040000000000000000001100000
0200120DILLINGHAM CITY SCH DIST      000000000002000000000005000000000032000000000377000000000414000000000000000000000002000000000036000000000038000000000003000000000029000000000000000001100000
0200130GALENA CITY SCH DIST          000000000001000000000000000000000008000000000137000000000145000000000000000000000001000000000018000000000019000000000002000000000017000000000000000000111011
0200150GATEWAY BOROUGH SCH DIST      000000000008000000000016000000000180000000002223000000002419000000000000000000000003000000000138000000000141000000000020000000000065000000000000000001001000
0200180ANCHORAGE SCH DIST            000000000066000000000115000000002798000000034609000000037422000000000008000000000069000000002084000000002161000000000178000000001223000000000000111111111011
0200210JUNEAU BOROUGH SCHOOLS        000000000014000000000046000000000323000000004205000000004574000000000001000000000007000000000224000000000230000000000025000000000085000000000000000001001000
0200240SITKA BOROUGH SCH DIST        000000000006000000000015000000000144000000001515000000001674000000000000000000000003000000000094000000000097000000000022000000000039000000000000000001001000
0200270HAINES BOROUGH SCH DIST       000000000005000000000003000000000029000000000334000000000366000000000000000000000002000000000034000000000035000000000002000000000019000000000000000001000000
0200300HOONAH CITY SCH DIST          000000000001000000000003000000000023000000000200000000000226000000000000000000000001000000000018000000000018000000000001000000000015000000000000011110100001
0200330HYDABURG CITY SCH DIST        000000000001000000000000000000000012000000000093000000000105000000000000000000000001000000000012000000000013000000000002000000000009000000000000000000111000
0200360KAKE CITY SCH DIST            000000000001000000000000000000000017000000000190000000000207000000000000000000000001000000000019000000000020000000000007000000000019000000000000000000000000
0200390KENAI PENINSULA BOROUGH SCHS  000000000022000000000045000000000580000000006867000000007492000000000001000000000019000000000261000000000282000000000037000000000255000000000000000001001000
0200420KING COVE CITY SCH DIST       000000000001000000000000000000000004000000000093000000000097000000000000000000000000000000000015000000000016000000000004000000000009000000000000000000111000
0200450KLAWOCK CITY SCH DIST         000000000001000000000000000000000004000000000137000000000141000000000000000000000000000000000017000000000017000000000002000000000010000000000000000000110000
0200480KODIAK ISLAND BOROUGH SCH DI  000000000014000000000006000000000196000000001978000000002180000000000000000000000004000000000137000000000141000000000043000000000136000000000000000001001100
0200485LAKE AND PENINSULA SCH DIST   000000000015000000000003000000000038000000000311000000000352000000000005000000000000000000000041000000000046000000000003000000000026000000000000000001111000
0200490LOWER KUSKOKWIM SCH DIST      000000000027000000000024000000000178000000002284000000002486000000000001000000000007000000000223000000000231000000000102000000000151000000000000000001100000
0200500LOWER YUKON SCH DIST          000000000012000000000002000000000113000000001264000000001379000000000000000000000006000000000119000000000125000000000049000000000114            000001000000
0200510MATANUSKA-SUSITNA BOR SCHS    000000000017000000000014000000000607000000006353000000006974000000000000000000000018000000000356000000000375000000000045000000000259000000000000000001001000
0200520IDITAROD REAA SCH DIST        000000000010000000000004000000000018000000000277000000000299000000000000000000000001000000000036000000000037000000000010000000000031000000000000000001000000
0200525ANNETTE ISLAND SCH DIST       000000000003000000000000000000000042000000000341000000000383000000000000000000000002000000000030000000000032000000000003000000000018000000000000000000000000
0200540NENANA CITY SCH DIST          000000000001000000000000000000000008000000000107000000000115000000000000000000000001000000000008000000000008000000000003000000000005000000000010111111111100
0200570NOME CITY SCH DIST            000000000001000000000006000000000059000000000700000000000765000000000001000000000003000000000052000000000056000000000006000000000040000000000000011111111010
0200600NORTH STAR BOROUGH SCH DIST   000000000023000000000084000000000815000000009276000000010175000000000002000000000052000000000627000000000681000000000039000000000250000000000000111111111010
0200610NORTH SLOPE BOROUGH SCH DIST  000000000010000000000000000000000113000000000947000000001060000000000009000000000005000000000109000000000122000000000043000000000092000000000000010010011000
0200625NORTHWEST ARCTIC SCH DIST     000000000012000000000000000000000137000000001337000000001474000000000001000000000006000000000139000000000145000000000055000000000132000000000000010001111100
0200630PELICAN CITY SCH DIST         000000000001000000000000000000000007000000000047000000000054000000000000000000000000000000000006000000000006000000000001000000000002000000000000000000110000
0200660PETERSBURG CITY SCH DIST      000000000001000000000000000000000056000000000572000000000628000000000000000000000002000000000038000000000039000000000006000000000018000000000000000000000000
0200670PRIBILOF ISLAND SCH DIST      000000000003000000000000000000000017000000000144000000000161000000000000000000000001000000000014000000000015000000000009000000000011000000000000000000000000
0200680SAINT MARYS CITY SCH DIST     000000000001000000000001000000000012000000000101000000000114000000000000000000000001000000000010000000000011000000000002000000000019000000000000000001111011
0200683SAND POINT SCHOOLS            000000000001000000000000000000000007000000000103000000000110000000000000000000000000000000000012000000000012000000000000000000000003000000000000000000110000
0200690SKAGWAY CITY SCH DIST         000000000001000000000002000000000010000000000139000000000151000000000000000000000001000000000013000000000014000000000004000000000004000000000000000001110000
0200700SOUTHEAST ISLAND SCH DIST     000000000017000000000000000000000018000000000346000000000364000000000000000000000001000000000041000000000042000000000017000000000009000000000000001010000000
0200710SOUTHWEST REGION SCH DIST     000000000010000000000000000000000043000000000477000000000520000000000001000000000003000000000057000000000060000000000028000000000086000000000000010001111111
0200715TANANA CITY SCHOOL DIST       000000000002000000000001000000000004000000000072000000000077000000000000000000000000000000000012000000000012000000000000000000000007000000000000000001110000
0200720UNALASKA CITY SCH DIST        000000000001000000000000000000000011000000000139000000000150000000000000000000000001000000000015000000000016000000000004000000000011000000000000000000111000
0200730CHATHAM REGION SCHOOLS        000000000008000000000000000000000033000000000250000000000283000000000000000000000001000000000024000000000025000000000013000000000021000000000000000000110000
0200760KUSPUK SCHOOL DISTRICT        000000000010000000000003000000000027000000000297000000000327000000000000000000000001000000000040000000000042000000000009000000000034000000000000000001011000
0200770RAIL BELT SCHOOL DISTRICT     000000000005000000000000000000000036000000000273000000000309000000000000000000000002000000000031000000000033000000000005000000000018000000000000000000110000
0200775YUKON FLATS SCH DIST          000000000012000000000000000000000033000000000280000000000313000000000000000000000002000000000042000000000042000000000011000000000034000000000000000000111100
0200780VALDEZ CITY SCH DIST          000000000005000000000000000000000052000000000777000000000829000000000000000000000003000000000058000000000061000000000019000000000025000000000000000000000000
0200800CHUGACH SCH DIST              000000000003000000000000000000000011000000000073000000000084000000000000000000000001000000000008000000000009000000000001000000000004000000000000000000110000
0200810WRANGELL CITY SCH DIST        000000000001000000000000000000000046000000000436000000000482000000000000000000000001000000000035000000000036000000000014000000000017000000000000000000000000
0200840YAKUTAT CITY SCH DIST         000000000001000000000004000000000011000000000149000000000164000000000000000000000001000000000017000000000017000000000003000000000016000000000000000001110000
0200862YUKON KOYUKUK SCH DIST        000000000012000000000000000000000047000000000461000000000508000000000000000000000002000000000053000000000055000000000020000000000041000000000000000000000000
0400450AGUA FRIA UNION HIGH SCH DIS  000000000001000000000000000000000000000000001310000000001310000000000000000000000000000000000067000000000067000000000008000000000067000000000000000000000000
0400480AGUILA ELEM SCH DIST 063      000000000001000000000000000000000006000000000064000000000070000000000000000000000000000000000006000000000006000000000003000000000004000000000000000000110000
0400520AJO UNIFIED SCH DIST 015      000000000003000000000000000000000075000000001064000000001139000000000000000000000002000000000064000000000066000000000008000000000054000000000000000000000000
0400600ALHAMBRA ELEM SCH DIST 068    000000000008000000000000000000000791000000005628000000006419000000000000000000000017000000000329000000000345000000000054000000000252000000000000000010000000
0400630ALPINE ELEM SCH DIST 007      000000000001000000000000000000000004000000000075000000000079000000000000000000000000000000000004000000000004000000000004000000000002000000000000000000110000
0400680AMPITHEATER UNIF DIST 10      000000000013000000000000000000000266000000004027000000004293000000000000000000000013000000000193000000000205000000000026000000000069000000000000000000011011
0400720ANTELOPE U HI SCH DIST 50     000000000001000000000000000000000000000000000473000000000473000000000000000000000000000000000018000000000018000000000003000000000022000000000000000000000000
0400750APACHE ELEM SCH DIST 042      000000000001000000000000000000000000000000000005000000000005000000000000000000000000000000000001000000000001000000000000000000000001000000000000000000000000
0400790APACHE JUNCTION UNIF DIST 43  000000000004000000000000000000000217000000002616000000002833000000000000000000000004000000000126000000000130000000000028000000000138000000000000000000000000
0400840ARLINGTON ELEM SCH DIST 047   000000000002000000000000000000000026000000000280000000000306000000000000000000000001000000000013000000000014000000000005000000000014000000000000000000110000
0400870ASH CREEK ELEM SCH DIST 053   000000000001000000000000000000000006000000000041000000000047000000000000000000000000000000000004000000000004000000000002000000000004000000000000000000110000
0400910ASH FORK UNIFIED SCH DIST 03  000000000002000000000000000000000011000000000129000000000140000000000000000000000000000000000012000000000012000000000003000000000006000000000000000000110000
0400960AVONDALE ELEM SCH DIST 044    000000000004000000000000000000000097000000000742000000000839000000000000000000000004000000000039000000000043000000000009000000000036000000000000000000011111
0401000BAGDAD UNIFIED SCH DIST 020   000000000002000000000000000000000073000000000765000000000838000000000000000000000003000000000047000000000050000000000007000000000032000000000000000000110000
0401050BALSZ ELEM SCH DIST 031       000000000004000000000000000000000244000000001813000000002057000000000000000000000006000000000101000000000107000000000028000000000068000000000000000010110000
0401080BEAVER CREEK ELEM SCH DIST 0  000000000001000000000000000000000012000000000125000000000137000000000000000000000001000000000009000000000010000000000002000000000007000000000000000010000000
0401110BENSON ELEM SCH DIST 009      000000000002000000000000000000000072000000000623000000000695000000000000000000000003000000000035000000000038000000000007000000000022000000000000000000000000
0401140BENSON UNION HIGH SCH DIST 0  000000000001000000000000000000000000000000000387000000000387000000000000000000000000000000000024000000000024000000000000000000000024000000000000000000000000
0401160BICENTENNIAL UHS SCH DIST 76  000000000001000000000000000000000000000000000121000000000121000000000000000000000000000000000009000000000009000000000000000000000004000000000000000000000011
0401180BISBEE UNIFIED SCH DIST 002   000000000003000000000000000000000098000000001340000000001438000000000000000000000002000000000078000000000080000000000003000000000076000000000000000000000000
0401230BLUE ELEM SCH DIST 022        000000000001000000000000000000000000000000000006000000000006000000000000000000000000000000000001000000000001000000000000000000000000000000000000000000000000
0401260BONITA ELEM SCH DIST 016      000000000001000000000000000000000011000000000063000000000074000000000000000000000000000000000004000000000004000000000003000000000004000000000000000000110000
0401290BOUSE ELEM SCH DIST 026       000000000001000000000000000000000006000000000045000000000051000000000000000000000000000000000004000000000004000000000002000000000004000000000000000000110000
0401330BOWIE UNIFIED SCH DIST 014    000000000002000000000000000000000005000000000119000000000124000000000000000000000000000000000011000000000011000000000003000000000007000000000000000000110000
0401380BUCKEYE ELEM SCH DIST 033     000000000001000000000000000000000107000000000792000000000899000000000000000000000002000000000040000000000042000000000000000000000031000000000000000000000000
0401410BUCKEYE UNION HIGH SCH DIST   000000000001000000000000000000000000000000000733000000000733000000000000000000000000000000000042000000000042000000000000000000000040000000000000000000000000
0401460SIERRA VISTA UNIF DIST NO 68  000000000008000000000000000000000341000000005262000000005603000000000000000000000009000000000288000000000297000000000027000000000211000000000000000000000000
0401500BULLHEAD CITY ELEM SCH DIST   000000000003000000000000000000000134000000001272000000001406000000000000000000000003000000000069000000000072000000000020000000000053000000000000000010110000
0401600CAMP VERDE USD 028            000000000002000000000000000000000061000000000898000000000959000000000000000000000001000000000051000000000052000000000007000000000025000000000000000000000000
0401650CANON ELEM SCH DIST 050       000000000001000000000000000000000020000000000126000000000146000000000000000000000001000000000011000000000011000000000002000000000006000000000000000010000000
0401680CARTWRIGHT ELEM SCH DIST 083  000000000016000000000000000000001343000000010949000000012292000000000000000000000029000000000577000000000605000000000053000000000359000000000000000010000000
0401710CASA GRANDE ELEM SCH DIST 00  000000000007000000000000000000000404000000003250000000003654000000000000000000000009000000000177000000000186000000000046000000000137000000000000000000000000
0401740CASA GRANDE UNION HIGH SCHS   000000000001000000000000000000000000000000001688000000001688000000000000000000000000000000000087000000000087000000000016000000000076000000000000000000000000
0401760CATALINA FOOTHILLS UNIF NO 1  000000000003000000000000000000000110000000001265000000001375000000000000000000000003000000000075000000000078000000000022000000000043000000000000000000000000
0401770CAVE CREEK ELEM S             000000000002000000000000000000000056000000000591000000000647000000000000000000000002000000000034000000000035000000000006000000000029000000000000000000000000
0401780CAVE CREEK HIGH S             000000000001000000000000000000000000000000000142000000000142000000000000000000000000000000000010000000000010000000000000000000000005000000000000000000000011
0401810CEDAR UNIF SCH DIST 25        000000000002000000000000000000000059000000000445000000000504000000000000000000000003000000000018000000000021000000000004000000000013000000000000000000110111
0401830CHAMPIE ELEM SCH DIST 014     000000000001000000000000000000000000000000000002000000000002000000000000000000000000000000000001000000000001000000000000000000000000000000000000000000000000
0401870CHANDLER UNIFIED SCH DIST 08  000000000010000000000000000000000605000000004701000000005306000000000000000000000012000000000372000000000383000000000023000000000237000000000000000000000000
0401920CHEVELON BUTTE ELEM SCH DIST  000000000001000000000000000000000000000000000007000000000007000000000000000000000000000000000001000000000001000000000001000000000002000000000000000010000000
0401940CHINLE UNIFIED SC             000000000006000000000000000000000101000000001088000000001189000000000000000000000004000000000048000000000052000000000010000000000017000000000000000010111111
0401980CHINO VALLEY ELEM SCH DIST 0  000000000002000000000000000000000059000000000635000000000694000000000000000000000001000000000036000000000037000000000010000000000023000000000000000000000000
0402010CHLORIDE ELEM SCH DIST 011    000000000001000000000000000000000006000000000089000000000095000000000000000000000000000000000008000000000008000000000000000000000008000000000000000010110000
0402110CLIFTON UNIFIED SCH DIST 003  000000000002000000000000000000000058000000000556000000000614000000000000000000000001000000000037000000000038000000000008000000000034000000000000000010000000
0402130COCHISE ELEM SCH DIST 026     000000000001000000000000000000000004000000000025000000000029000000000000000000000000000000000004000000000004000000000000000000000006000000000000000000110000
0402160COLORADO CITY ELEM SCH DIST   000000000001000000000000000000000000000000000929000000000929000000000000000000000000000000000039000000000039000000000008000000000026000000000000000000000100
0402190CONCHO ELEM SCH DIST 006      000000000001000000000000000000000019000000000152000000000171000000000000000000000001000000000009000000000010000000000003000000000008000000000000000010000000
0402220CONGRESS ELEM SCH DIST 017    000000000000000000000000000000000000000000000000000000000000000000000000000000000000000000000000000000000000000000000000000000000001000000000000000000000000
0402250CONTINENTAL ELEM SCH DIST 03  000000000001000000000000000000000011000000000128000000000139000000000000000000000000000000000011000000000011000000000003000000000012000000000000000010110000
0402320COOLIDGE UNIFIED SCH DIST 02  000000000004000000000000000000000191000000002065000000002256000000000000000000000004000000000119000000000123000000000033000000000091000000000000000000000000
0402370COTTONWOOD-OAK CREEK ELEM 00  000000000005000000000000000000000180000000001621000000001801000000000000000000000004000000000083000000000087000000000008000000000051000000000000000000000000
0402400CRANE ELEM SCH DIST 013       000000000004000000000000000000000347000000002544000000002891000000000000000000000007000000000157000000000164000000000005000000000131000000000000000000000000
0402430CREIGHTON ELEM SCH DIST 014   000000000007000000000000000000000549000000003337000000003886000000000000000000000010000000000197000000000207000000000028000000000144000000000000000000000000
0402460CROWN KING ELEM SCH DIST 041  000000000001000000000000000000000000000000000008000000000008000000000000000000000000000000000001000000000001000000000000000000000000000000000000000000000000
0402480DAN HINTON ACCOM SCH DIST 09  000000000001000000000000000000000000000000000021000000000021000000000000000000000000000000000003000000000003000000000001000000000001000000000000000000000011
0402490DOUBLE ABODE ELEM SCH DIST 0  000000000001000000000000000000000011000000000060000000000071000000000000000000000001000000000004000000000004000000000001000000000002000000000000000010000000
0402530DOUGLAS UNIFIED SCH DIST 027  000000000010000000000000000000000277000000003727000000004004000000000000000000000009000000000198000000000207000000000062000000000116000000000000000000110000
0402600DUNCAN UNIFIED SCH DIST 002   000000000002000000000000000000000059000000000551000000000610000000000000000000000001000000000036000000000037000000000001000000000033000000000000000000000000
0402690DYSART UNIFIED SCH DIST 089   000000000005000000000000000000000345000000002958000000003303000000000000000000000010000000000183000000000193000000000035000000000144000000000000000000110000
0402740MARY C O'BRIEN SCH DIST 00    000000000001000000000000000000000008000000000040000000000048000000000000000000000000000000000003000000000003000000000001000000000002000000000000000010110011
0402760ELFRIDA ELEM SCH DIST 012     000000000001000000000000000000000015000000000167000000000182000000000000000000000001000000000010000000000011000000000003000000000010000000000000000010000000
0402790ELOY ELEM SCH DIST 011        000000000004000000000000000000000149000000001057000000001206000000000000000000000003000000000074000000000077000000000027000000000045000000000000000000000000
0402820EMPIRE ELEM SCH DIST 037      000000000000000000000000000000000000000000000000000000000000000000000000000000000000000000000000000000000000000000000000000000000000000000000000000000000000
0402840FAR W  DEVEMTAL LEARNING CTR  000000000001000000000000000000000000000000000053000000000053000000000000000000000000000000000006000000000006000000000000000000000002000000000000100000011011
0402860FLAGSTAFF UNIFIED SCH DIST 0  000000000014000000000000000000000648000000008323000000008971000000000000000000000017000000000469000000000485000000000047000000000288000000000000000010110000
0402920FLORENCE UNIFIED SCH DIST 1   000000000003000000000000000000000067000000000869000000000936000000000000000000000002000000000045000000000046000000000005000000000037000000000000000000000000
0403010FLOWING WELLS UNIF SCH DIST   000000000006000000000000000000000325000000003815000000004140000000000000000000000007000000000198000000000205000000000026000000000147000000000000000000000000
0403030FORREST ELEM SCH DIST 081     000000000000000000000000000000000000000000000000000000000000000000000000000000000000000000000000000000000000000000000000000000000000000000000000000000000000
0403040FOUNTAIN HILLS SCH DIST 098   000000000001000000000000000000000040000000000346000000000386000000000000000000000001000000000019000000000020000000000000000000000015000000000000000000000000
0403060FOWLER ELEM SCH DIST 045      000000000002000000000000000000000094000000000671000000000765000000000000000000000003000000000039000000000041000000000005000000000025000000000000000000000000
0403080FREDONIA/MOCCASIN UNIFIED 00  000000000003000000000000000000000035000000000384000000000419000000000000000000000001000000000023000000000023000000000005000000000015000000000000000010110000
0403150FORT HUACHUCA ACCOMMODATION   000000000003000000000000000000000199000000001386000000001585000000000000000000000004000000000070000000000074000000000010000000000038000000000000000010000000
0403200FT THOMAS UNIFIED SCH DIST 0  000000000002000000000000000000000015000000000339000000000354000000000000000000000001000000000030000000000030000000000014000000000025000000000000000000110000
0403240GADSDEN ELEM SCH DIST 032     000000000001000000000000000000000064000000000702000000000766000000000000000000000002000000000028000000000030000000000014000000000022000000000000000000000000
0403290GANADO UNIF SCH DIST 20       000000000004000000000000000000000106000000001459000000001565000000000000000000000004000000000093000000000097000000000033000000000032000000000000000000000011
0403310GILA BEND UNIFIED SCH DIST 0  000000000002000000000000000000000023000000000366000000000389000000000000000000000001000000000031000000000032000000000001000000000034000000000000000010110000
0403320GILA CO SPEC SERVS            000000000001000000000000000000000000000000000018000000000018000000000000000000000000000000000016000000000016000000000002000000000009000000000000000000000000
0403400GILBERT UNIFIED SCH DIST 041  000000000006000000000000000000000157000000001705000000001862000000000000000000000006000000000076000000000082000000000040000000000027000000000000000000111011
0403420GLENDALE ELEM SCH DIST 040    000000000010000000000000000000000747000000005925000000006672000000000000000000000015000000000314000000000329000000000035000000000210000000000000000000000000
0403450GLENDALE UNION HI SCH DIST 0  000000000010000000000000000000000000000000014492000000014492000000000000000000000000000000000654000000000654000000000009000000000498000000000000000000000000
0403500GLOBE UNIFIED SCH DIST 1      000000000004000000000000000000000181000000002112000000002293000000000000000000000004000000000129000000000133000000000016000000000093000000000000000010000000
0403550GRAND CANYON U S D NUMBER 4   000000000002000000000000000000000019000000000208000000000227000000000000000000000001000000000017000000000017000000000001000000000011000000000000000000000000
0403580GREENLEE CO ACCOM SCH DIST 0  000000000001000000000000000000000000000000000004000000000004000000000000000000000000000000000004000000000004000000000000000000000001000000000000000000000000
0403660HACKBERRY ELEM SCH DIST 003   000000000001000000000000000000000001000000000009000000000010000000000000000000000000000000000001000000000001000000000000000000000001000000000000000000000000
0403730HAYDEN/WINKELMAN UNIF SCHS 0  000000000004000000000000000000000057000000000609000000000666000000000000000000000001000000000041000000000042000000000007000000000030000000000000000000110000
0403780HIGLEY ELEM SCH DIST 060      000000000001000000000000000000000027000000000143000000000170000000000000000000000001000000000010000000000011000000000002000000000007000000000000000000110000
0403820HOLBROOK UNIFIED SCH DIST 00  000000000005000000000000000000000119000000001745000000001864000000000000000000000002000000000104000000000106000000000016000000000088000000000000000010000000
0403860HORSE MESA ACCOM SCH DIST 50  000000000002000000000000000000000000000000000012000000000012000000000000000000000000000000000001000000000001000000000000000000000002000000000000000010000000
0403870HUMBOLDT UNIFIED SCH DIST 02  000000000003000000000000000000000112000000001026000000001138000000000000000000000003000000000079000000000082000000000004000000000070000000000000000010000000
0403900HYDER ELEM SCH DIST 016       000000000001000000000000000000000009000000000063000000000072000000000000000000000001000000000004000000000005000000000001000000000003000000000000000010011111
0403950INDIAN OASIS UNIF SCH DIST 4  000000000004000000000000000000000081000000000847000000000928000000000000000000000003000000000055000000000058000000000029000000000065000000000000000000000000
0403960ISAAC ELEM SCH DIST 005       000000000006000000000000000000000540000000004033000000004573000000000000000000000013000000000202000000000215000000000039000000000127000000000000000010110000
0403990J O COMBS ELEM SCH DIST 044   000000000001000000000000000000000010000000000190000000000200000000000000000000000000000000000010000000000010000000000003000000000009000000000000000000110000
0404010JOSEPH CY UNIF SCH DIST 02    000000000002000000000000000000000035000000000369000000000404000000000000000000000001000000000026000000000027000000000002000000000018000000000000000000000000
0404060KAYENTA UNIFIED SCH DIST 027  000000000004000000000000000000000128000000001787000000001915000000000000000000000004000000000118000000000122000000000042000000000041000000000000000000110011
0404140KINGMAN ELEM SCH DIST 004     000000000004000000000000000000000304000000002412000000002716000000000000000000000008000000000133000000000141000000000036000000000097000000000000000000000000
0404170KIRKLAND ELEM SCH DIST 023    000000000001000000000000000000000004000000000040000000000044000000000000000000000000000000000003000000000003000000000001000000000002000000000000000000110000
0404200KLONDYKE ELEM SCH DIST 009    000000000000000000000000000000000000000000000000000000000000000000000000000000000000000000000000000000000000000000000000000000000000000000000000000000000000
0404230KYRENE ELEM SCH DIST 028      000000000006000000000000000000000143000000001246000000001389000000000000000000000004000000000065000000000069000000000005000000000053000000000000000010111011
0404280LAKE HAVASU UNIFI             000000000007000000000000000000000188000000002791000000002979000000000000000000000004000000000151000000000155000000000012000000000112000000000000000010110000
0404290LAVEEN ELEM SCH DIST 059      000000000002000000000000000000000149000000001614000000001763000000000000000000000003000000000092000000000095000000000011000000000061000000000000000000000000
0404320LIBERTY ELEM SCH DIST 025     000000000001000000000000000000000066000000000554000000000620000000000000000000000002000000000029000000000031000000000001000000000023000000000000000000000000
0404380LITCHFIELD ELEM SCH DIST 079  000000000002000000000000000000000125000000001123000000001248000000000000000000000003000000000058000000000061000000000013000000000050000000000000000000000000
0404410LITTLEFIELD ELEM SCH DIST 00  000000000001000000000000000000000024000000000019000000000043000000000000000000000001000000000000000000000001000000000000000000000000000000000000000000110000
0404440LITTLETON ELEM SCH DIST 065   000000000002000000000000000000000176000000001105000000001281000000000000000000000005000000000067000000000072000000000034000000000062000000000000000010110000
0404470LOCHIEL ELEM SCH DIST 009     000000000000000000000000000000000000000000000000000000000000000000000000000000000000000000000000000000000000000000000000000000000000000000000000100000000000
0404500MADISON ELEM SCH DIST 038     000000000007000000000000000000000298000000003488000000003786000000000000000000000009000000000199000000000208000000000012000000000157000000000000000000000000
0404530MAINE CONSOLIDATED ELEM 010   000000000001000000000000000000000005000000000046000000000051000000000000000000000000000000000005000000000005000000000002000000000005000000000000000000110000
0404570MAMMOTH/SAN MANUEL UNIFIED 0  000000000005000000000000000000000200000000002013000000002213000000000000000000000007000000000118000000000125000000000016000000000089000000000000000000000000
0404630MARANA UNIF DIST NO 6         000000000009000000000000000000000369000000004431000000004800000000000000000000000010000000000239000000000249000000000032000000000205000000000000000000110000
0404720MARICOPA UNIFIED SCH DIST 20  000000000002000000000000000000000022000000000278000000000300000000000000000000000001000000000023000000000024000000000009000000000016000000000000000000111011
0404770MARY E DILL ELEM SCH DIST 05  000000000001000000000000000000000033000000000221000000000254000000000000000000000001000000000014000000000015000000000003000000000012000000000000000000000000
0404820MAYER UNIFIED SCH DIST 043    000000000002000000000000000000000019000000000332000000000351000000000000000000000001000000000021000000000022000000000005000000000017000000000000000000110000
0404860MC NARY ELEM SCH DIST 023     000000000001000000000000000000000013000000000073000000000086000000000000000000000000000000000005000000000005000000000003000000000009000000000000000000110000
0404920MC NEAL ELEM SCH DIST 055     000000000001000000000000000000000001000000000034000000000035000000000000000000000000000000000003000000000003000000000001000000000003000000000000000000100000
0404970MESA UNIFIED SCH DIST 4       000000000048000000000000000000001417000000016008000000017425000000000000000000000077000000000652000000000728000000000207000000000420000000000000000010011011
0405030MIAMI UNIFIED SCH DIST 040    000000000006000000000000000000000393000000002988000000003381000000000000000000000012000000000106000000000117000000000013000000000086000000000000000010101000
0405070MINGUS UNION HIGH SCH DIST 0  000000000001000000000000000000000000000000000906000000000906000000000000000000000000000000000044000000000044000000000003000000000037000000000000000000000000
0405100MOBILE ELEM SCH DIST 086      000000000001000000000000000000000002000000000009000000000011000000000000000000000000000000000001000000000001000000000001000000000001000000000000000000111011
0405170MOHAVE UNION HIGH SCH DIST 3  000000000002000000000000000000000000000000002085000000002085000000000000000000000000000000000109000000000109000000000000000000000075000000000000000000000000
0405190MOHAVE VLY ELEM SCH DIST 16   000000000003000000000000000000000057000000000498000000000555000000000000000000000001000000000028000000000029000000000009000000000020000000000000000000000000
0405220MOHAWK VLY ELEM SCH DIST 17   000000000001000000000000000000000029000000000222000000000251000000000000000000000001000000000014000000000015000000000006000000000010000000000000000010000000
0405320MORENCI UNIFIED SCH DIST 018  000000000004000000000000000000000122000000001198000000001320000000000000000000000003000000000069000000000072000000000000000000000047000000000000000000000000
0405340MORRISTOWN ELEM SCH DIST 075  000000000001000000000000000000000002000000000049000000000051000000000000000000000000000000000004000000000004000000000001000000000004000000000000000000100000
0405360ZIMMERMAN ACCOM SCH DIST 00   000000000001000000000000000000000001000000000006000000000007000000000000000000000000000000000001000000000001000000000001000000000000000000000000000010110000
0405400MURPHY ELEM SCH DIST 021      000000000003000000000000000000000298000000002296000000002594000000000000000000000006000000000109000000000115000000000019000000000104000000000000000000000000
0405430NACO ELEM SCH DIST 023        000000000001000000000000000000000022000000000199000000000221000000000000000000000001000000000013000000000013000000000000000000000007000000000000000010000000
0405460NADABURG ELEM SCH DIST 081    000000000001000000000000000000000024000000000269000000000293000000000000000000000001000000000014000000000014000000000010000000000015000000000000000000000000
0405530NOGALES UNIFIED SCH DIST 001  000000000007000000000000000000000364000000004365000000004729000000000000000000000012000000000223000000000235000000000042000000000126000000000000000010000000
0405640ORACLE ELEM SCH DIST 002      000000000001000000000000000000000063000000000525000000000588000000000000000000000002000000000031000000000032000000000006000000000034000000000000000000000000
0405670OSBORN ELEM SCH DIST 008      000000000006000000000000000000000112000000000986000000001098000000000000000000000006000000000055000000000061000000000015000000000044000000000000000000011011
0405730OWENS WHITNEY ELEM SCH DIST   000000000001000000000000000000000002000000000015000000000017000000000000000000000000000000000001000000000001000000000001000000000002000000000000000000111000
0405760TONTO BASIN SCH DIST 033      000000000001000000000000000000000005000000000043000000000048000000000000000000000000000000000004000000000004000000000000000000000003000000000000000000110000
0405820PAGE UNIFIED SCH DIST 008     000000000003000000000000000000000200000000002319000000002519000000000000000000000004000000000121000000000125000000000090000000000118000000000000000000000000
0405850PALO VERDE ELEM SCH DIST 049  000000000001000000000000000000000025000000000161000000000186000000000000000000000001000000000012000000000012000000000001000000000009000000000000000000000000
0405880PALOMINAS ELEM SCH DIST 049   000000000001000000000000000000000034000000000286000000000320000000000000000000000001000000000019000000000019000000000002000000000012000000000000000010110000
0405930PARADISE VALLEY UNIF SCHS 69  000000000022000000000000000000001301000000018555000000019856000000000000000000000025000000000860000000000885000000000109000000000583000000000000000000000000
0405980PARKER UNIF DIST NO 27        000000000004000000000000000000000169000000001740000000001909000000000000000000000003000000000094000000000097000000000026000000000081000000000000000010000000
0406000PATAGONIA ELEM SCH DIST 006   000000000001000000000000000000000021000000000110000000000131000000000000000000000000000000000008000000000008000000000001000000000006000000000000000000110000
0406030PATAGONIA UNION HIGH SCH 020  000000000002000000000000000000000000000000000065000000000065000000000000000000000000000000000005000000000005000000000000000000000008000000000000000000011000
0406070PAYSON UNIFIED SCH DIST 010   000000000003000000000000000000000083000000001327000000001410000000000000000000000002000000000068000000000070000000000004000000000051000000000000000000000000
0406120PEACH SPGS ELEM SCH DIST 08   000000000002000000000000000000000021000000000156000000000177000000000000000000000001000000000011000000000012000000000008000000000014000000000000000000000000
0406150PEARCE ELEM SCH DIST 022      000000000001000000000000000000000010000000000085000000000095000000000000000000000001000000000006000000000007000000000003000000000006000000000000000000000000
0406210PENDERGAST ELEM SCH DIST 092  000000000003000000000000000000000296000000002163000000002459000000000000000000000007000000000128000000000134000000000010000000000080000000000000000000110000
0406250PEORIA UNIFIED SCH DIST 011   000000000012000000000000000000000868000000010174000000011042000000000000000000000023000000000496000000000519000000000054000000000362000000000000000000000000
0406300PHOENIX ELEM SCH DIST 001     000000000013000000000000000000000997000000006051000000007048000000000000000000000020000000000343000000000363000000000042000000000309000000000000000000000000
0406330PHOENIX UNION HI SCH DIST 10  000000000011000000000000000000000000000000018197000000018197000000000000000000000000000000000955000000000955000000000117000000000818000000000000000000000000
0406360PICACHO ELEM SCH DIST 033     000000000001000000000000000000000016000000000146000000000162000000000000000000000001000000000014000000000015000000000004000000000010000000000000000000000000
0406440PIMA UNIFIED SCH DIST 6       000000000002000000000000000000000059000000000617000000000676000000000000000000000001000000000029000000000030000000000001000000000020000000000000000010110000
0406460PIMA SPEC PROGRAMS NO. 99     000000000001000000000000000000000000000000000001000000000001000000000000000000000000000000000001000000000001000000000000000000000001000000000000100000000111
0406480PINAL CO SP ED SCH DIST 099   000000000001000000000000000000000000000000000063000000000063000000000000000000000000000000000004000000000004000000000001000000000002000000000000000000000100
0406510PINE ELEM SCH DIST 012        000000000001000000000000000000000020000000000177000000000197000000000000000000000001000000000012000000000013000000000000000000000009000000000000000010000000
0406580PINETOP-LAKESIDE UNIF SCHS 0  000000000004000000000000000000000136000000001419000000001555000000000000000000000003000000000081000000000084000000000007000000000049000000000000000000000000
0406630POMERENE ELEM SCH DIST 064    000000000001000000000000000000000010000000000082000000000092000000000000000000000001000000000005000000000006000000000001000000000004000000000000000000000000
0406730PRESCOTT UNIFIED SCH DIST 00  000000000008000000000000000000000295000000004267000000004562000000000000000000000006000000000225000000000231000000000025000000000172000000000000000010000000
0406740PUERCO UNIFIED DIST NO 18     000000000003000000000000000000000069000000000759000000000828000000000000000000000003000000000055000000000058000000000032000000000062000000000000000000000000
0406780QUARTZSITE ELEM SCH DIST 004  000000000001000000000000000000000044000000000325000000000369000000000000000000000001000000000012000000000013000000000007000000000016000000000000000000000000
0406810QUEEN CREEK UNIFIED DIST 095  000000000001000000000000000000000039000000000435000000000474000000000000000000000001000000000033000000000034000000000004000000000023000000000000000000110000
0406850RAY UNIFIED SCH DIST 003      000000000003000000000000000000000088000000001203000000001291000000000000000000000002000000000065000000000067000000000000000000000040000000000000000000000000
0406870RED MESA UNIFIED              000000000004000000000000000000000059000000000767000000000826000000000000000000000001000000000050000000000051000000000010000000000017000000000000000000000011
0406900RED ROCK ELEM SCH DIST 005    000000000001000000000000000000000004000000000051000000000055000000000000000000000000000000000004000000000004000000000000000000000003000000000000000000110000
0406930REDINGTON ELEM SCH DIST 044   000000000000000000000000000000000000000000000000000000000000000000000000000000000000000000000000000000000000000000000000000000000000000000000000000000000000
0406960RICE ELEM SCH DIST 020        000000000001000000000000000000000088000000000642000000000730000000000000000000000002000000000035000000000037000000000020000000000041000000000000000000000000
0406990RINCON ELEM SCH DIST 047      000000000000000000000000000000000000000000000000000000000000000000000000000000000000000000000000000000000000000000000000000000000000000000000000000000000000
0407020RIVERSIDE ELEM SCH DIST 002   000000000001000000000000000000000023000000000204000000000227000000000000000000000001000000000013000000000015000000000003000000000012000000000000000010110000
0407080ROOSEVELT ELEM SCH DIST 066   000000000015000000000000000000001141000000008424000000009565000000000000000000000026000000000430000000000456000000000073000000000339000000000000000010110000
0407130ROUND VLY UNIF DIST NO 10     000000000004000000000000000000000177000000001703000000001880000000000000000000000004000000000083000000000087000000000021000000000062000000000000000000000000
0407140RUCKER ELEM SCH DIST 066      000000000000000000000000000000000000000000000000000000000000000000000000000000000000000000000000000000000000000000000000000000000000000000000000000000000000
0407170RUTH FISHER ELEM SCH DIST 09  000000000001000000000000000000000023000000000182000000000205000000000000000000000001000000000009000000000010000000000000000000000011000000000000000010000000
0407200SACATON ELEM SCH DIST 018     000000000002000000000000000000000086000000000624000000000710000000000000000000000002000000000037000000000039000000000021000000000035000000000000000000000011
0407240SAFFORD UNIF DIST 1           000000000004000000000000000000000188000000002226000000002414000000000000000000000005000000000102000000000107000000000020000000000056000000000000000010000000
0407300SAHUARITA UNIFIED SCH DIST 0  000000000004000000000000000000000087000000001500000000001587000000000000000000000003000000000096000000000098000000000010000000000082000000000000000000000000
0407350SALOME ELEM SCH DIST 030      000000000001000000000000000000000005000000000040000000000045000000000000000000000000000000000004000000000004000000000002000000000002000000000000000010110000
0407380SAN FERNANDO ELEM SCH DIST 0  000000000001000000000000000000000005000000000026000000000031000000000000000000000000000000000002000000000002000000000001000000000000000000000000000010110000
0407430SAN SIMON UNIFIED SCH DIST 0  000000000002000000000000000000000008000000000107000000000115000000000000000000000000000000000010000000000011000000000002000000000008000000000000000000101000
0407500SANTA CRUZ ELEM SCH DIST 028  000000000001000000000000000000000016000000000094000000000110000000000000000000000001000000000006000000000007000000000001000000000004000000000000000010000000
0407520SANTA CRUZ VLY UNIF SCHS 035  000000000002000000000000000000000050000000000311000000000361000000000000000000000002000000000022000000000024000000000004000000000022000000000000000000110000
0407530SANTA CRUZ VLY UHS DIST 840   000000000001000000000000000000000000000000000512000000000512000000000000000000000000000000000033000000000033000000000005000000000021000000000000000000000000
0407570SCOTTSDALE USD #48            000000000021000000000000000000000830000000018202000000019032000000000000000000000020000000001033000000001053000000000099000000000683000000000000000000000000
0407630SELIGMAN UNIFIED SCH DIST 04  000000000002000000000000000000000008000000000143000000000151000000000000000000000000000000000013000000000013000000000002000000000009000000000000000010110000
0407680SENTINEL ELEM SCH DIST 071    000000000001000000000000000000000005000000000022000000000027000000000000000000000000000000000003000000000003000000000000000000000003000000000000000000110000
0407700SHOW LOW UNIFIED SCH DIST 01  000000000005000000000000000000000158000000001570000000001728000000000000000000000003000000000090000000000093000000000010000000000058000000000000000000000000
0407750DEER VALLEY UNIF 97           000000000011000000000000000000000295000000003947000000004242000000000000000000000018000000000194000000000212000000000030000000000143000000000000000010011011
0407770SKULL VALLEY ELEM SCH DIST 0  000000000001000000000000000000000003000000000025000000000028000000000000000000000000000000000002000000000002000000000001000000000002000000000000000000110000
0407820SNOWFLAKE UNIFIED SCH DIST 0  000000000006000000000000000000000261000000002334000000002595000000000000000000000007000000000116000000000122000000000024000000000092000000000000000000110000
0407860SOLOMONVILLE ELEM SCH DIST 0  000000000001000000000000000000000023000000000190000000000213000000000000000000000001000000000010000000000011000000000005000000000011000000000000000000110000
0407890SOMERTON ELEM SCH DIST 011    000000000001000000000000000000000101000000001262000000001363000000000000000000000003000000000061000000000064000000000039000000000045000000000000000000000000
0407920SONOITA ELEM SCH DIST 025     000000000001000000000000000000000003000000000022000000000025000000000000000000000000000000000001000000000002000000000002000000000001000000000000000010111000
0408020SAINT DAVID UNIFIED SCHS 021  000000000002000000000000000000000038000000000315000000000353000000000000000000000001000000000020000000000021000000000002000000000013000000000000000010000000
0408080ST. JOHNS UNIF DIST NO 1      000000000004000000000000000000000117000000001211000000001328000000000000000000000003000000000065000000000068000000000006000000000050000000000000000000000000
0408130STANFIELD ELEM SCH DIST 024   000000000001000000000000000000000042000000000346000000000388000000000000000000000001000000000024000000000025000000000007000000000029000000000000000000000000
0408170SUNNYSIDE UNIFIED SCH DIST 0  000000000014000000000000000000000373000000004186000000004559000000000000000000000013000000000206000000000219000000000071000000000148000000000000000010011011
0408230SUPERIOR USD 15               000000000003000000000000000000000089000000000924000000001013000000000000000000000002000000000067000000000069000000000009000000000047000000000000000000000000
0408280TANQUE VERDE ELEM SCH DIST 0  000000000003000000000000000000000076000000001070000000001146000000000000000000000002000000000065000000000066000000000003000000000053000000000000000000000000
0408310TEMPE ELEM SCH DIST 003       000000000023000000000000000000000868000000010253000000011121000000000000000000000025000000000571000000000596000000000122000000000426000000000000000000000000
0408340TEMPE UNION HIGH SCH DIST 21  000000000004000000000000000000000000000000002863000000002863000000000000000000000000000000000166000000000166000000000023000000000120000000000000000000011011
0408410THATCHER UNIFIED SCH DIST 4   000000000004000000000000000000000106000000001089000000001195000000000000000000000002000000000057000000000059000000000001000000000043000000000000000010000000
0408430PALOMA ELEM SCH DIST 094      000000000001000000000000000000000012000000000080000000000092000000000000000000000000000000000007000000000007000000000003000000000004000000000000000000110000
0408460HILLSIDE ELEM SCH DIST 035    000000000001000000000000000000000004000000000018000000000022000000000000000000000000000000000001000000000001000000000000000000000001000000000000000010110000
0408490TOLLESON ELEM SCH DIST 017    000000000003000000000000000000000097000000000723000000000820000000000000000000000002000000000040000000000042000000000010000000000036000000000000000010000000
0408520TOLLESON UNION HI SCH DIST 1  000000000001000000000000000000000000000000000778000000000778000000000000000000000000000000000045000000000045000000000005000000000033000000000000000000011011
0408550TOLTEC ELEM SCH DIST 022      000000000001000000000000000000000029000000000285000000000314000000000000000000000001000000000011000000000012000000000001000000000012000000000000000000101000
0408600TOMBSTONE UNIFIED SCH DIST 0  000000000003000000000000000000000071000000000940000000001011000000000000000000000002000000000054000000000055000000000005000000000047000000000000000000000000
0408640TOPOCK ELEM SCH DIST 012      000000000000000000000000000000000000000000000000000000000000000000000000000000000000000000000000000000000000000000000000000000000000000000000000000000000000
0408680TUBA CITY UNIFIED SCH DIST 0  000000000006000000000000000000000176000000002884000000003060000000000000000000000004000000000164000000000168000000000075000000000174000000000000000000110000
0408800TUCSON UNIFIED SCH DIST 001   000000000090000000000000000000003171000000048972000000052143000000000000000000000074000000002410000000002485000000000305000000002179000000000000000000110000
0408820UNION ELEM SCH DIST 062       000000000001000000000000000000000005000000000041000000000046000000000000000000000000000000000004000000000004000000000001000000000004000000000000000000110000
0408850VAIL ELEM SCH DIST 020        000000000001000000000000000000000027000000000272000000000299000000000000000000000001000000000020000000000021000000000004000000000015000000000000000000000000
0408880VALENTINE ELEM SCH DIST 022   000000000001000000000000000000000002000000000020000000000022000000000000000000000000000000000002000000000002000000000001000000000002000000000000000000100000
0408910VALLEY UNION HIGH SCH DIST 0  000000000001000000000000000000000000000000000166000000000166000000000000000000000000000000000012000000000012000000000002000000000010000000000000000000000000
0408940VERDE ELEM SCH DIST 003       000000000001000000000000000000000019000000000128000000000147000000000000000000000001000000000010000000000011000000000001000000000006000000000000000010000000
0409000VICKSBURG ELEM SCH DIST 003   000000000001000000000000000000000004000000000019000000000023000000000000000000000000000000000002000000000002000000000001000000000003000000000000000010110000
0409030WALNUT GROVE ELEM S D 07      000000000001000000000000000000000000000000000007000000000007000000000000000000000000000000000001000000000001000000000000000000000001000000000000000000000000
0409060WASHINGTON ELEM SCH DIST 006  000000000031000000000000000000000816000000007849000000008665000000000000000000000029000000000490000000000519000000000108000000000331000000000000000000011011
0409090WELLTON ELEM SCH DIST 024     000000000001000000000000000000000036000000000308000000000344000000000000000000000001000000000021000000000022000000000008000000000014000000000000000010110000
0409120WENDEN ELEM SCH DIST 019      000000000001000000000000000000000014000000000094000000000108000000000000000000000000000000000007000000000007000000000004000000000007000000000000000010110000
0409160WHITERIVER UNIF DIST 20       000000000004000000000000000000000119000000001158000000001277000000000000000000000003000000000095000000000098000000000010000000000104000000000000000010000100
0409190WICKENBURG USD 09             000000000003000000000000000000000063000000001015000000001078000000000000000000000001000000000058000000000059000000000006000000000039000000000000000000110000
0409250WILLCOX UNIFIED SCH DIST 013  000000000003000000000000000000000078000000001141000000001219000000000000000000000002000000000067000000000069000000000008000000000050000000000000000010000000
0409290WILLIAMS AFB ACCOM  510,512   000000000001000000000000000000000085000000000379000000000464000000000000000000000002000000000021000000000023000000000002000000000014000000000000000000000000
0409310WILLIAMS UNIFIED SCH DIST 00  000000000002000000000000000000000055000000000587000000000642000000000000000000000001000000000038000000000039000000000009000000000025000000000000000000000000
0409360WILLIAMSON VALLEY ELEM SCH D  000000000000000000000000000000000000000000000000000000000000000000000000000000000000000000000000000000000000000000000000000000000001000000000000000000000000
0409390WILSON ELEM SCH DIST 007      000000000001000000000000000000000102000000000626000000000728000000000000000000000004000000000049000000000053000000000017000000000053000000000000000000000000
0409430WINDOW ROCK UNIF DIST NO 18   000000000004000000000000000000000210000000002407000000002617000000000000000000000007000000000132000000000139000000000049000000000046000000000000000000000011
0409460WINSLOW UNIFIED SCH DIST 001  000000000005000000000000000000000185000000002288000000002473000000000000000000000006000000000117000000000123000000000019000000000079000000000000000000000000
0409510YARNELL ELEM SCH DIST 052     000000000001000000000000000000000009000000000045000000000054000000000000000000000000000000000003000000000003000000000001000000000002000000000000000000110000
0409540YOUNG ELEM SCH DIST 005       000000000002000000000000000000000008000000000073000000000081000000000000000000000000000000000007000000000008000000000002000000000009000000000000000000101000
0409570YUCCA ELEM SCH DIST 013       000000000001000000000000000000000003000000000019000000000022000000000000000000000000000000000003000000000003000000000000000000000004000000000000000000100000
0409600YUMA ELEM SCH DIST 001        000000000014000000000000000000000267000000002125000000002392000000000000000000000016000000000128000000000144000000000020000000000090000000000000000000011011
0409630YUMA UNION HIGH SCH DIST 070  000000000002000000000000000000000000000000004332000000004332000000000000000000000000000000000204000000000204000000000032000000000184000000000000000000000000
0409700SPEC EDUC ACCOMODATION NO 77  000000000001000000000000000000000038000000000244000000000282000000000000000000000001000000000015000000000015000000000012000000000005000000000000111111110000
0409730COCHISE CO SPEC EDUC COOP     000000000001000000000000000000000004000000000074000000000078000000000000000000000000000000000004000000000004000000000000000000000006000000000000011111110000
0502220ACORN SCH DIST                000000000002000000000000000000000023000000000322000000000345000000000000000000000001000000000019000000000020000000000002000000000013000000000000000000000000
0502250ALMA SCH DIST                 000000000003000000000000000000000154000000001798000000001952000000000000000000000006000000000083000000000089000000000005000000000070000000000000000000000000
0502280ALPENA SCH DIST               000000000002000000000000000000000033000000000414000000000447000000000000000000000001000000000020000000000021000000000004000000000022000000000000000000000000
0502310ALREAD SCH DIST               000000000002000000000000000000000010000000000111000000000121000000000000000000000001000000000009000000000010000000000001000000000010000000000000000000100000
0502330ALTHEIMER SCH DIST            000000000004000000000000000000000062000000000744000000000806000000000000000000000003000000000057000000000060000000000010000000000054000000000000000000000000
0502370ALTUS-DENNING SCH DIST        000000000003000000000000000000000019000000000344000000000363000000000000000000000001000000000025000000000026000000000005000000000014000000000000000000110000
0502400AMITY SCH DIST                000000000002000000000000000000000021000000000313000000000334000000000000000000000001000000000018000000000019000000000000000000000018000000000000000000000000
0502430ARKADELPHIA SCH DIST          000000000005000000000000000000000189000000002045000000002234000000000000000000000009000000000113000000000122000000000004000000000108000000000000000000000000
0502460ARKANSAS CITY SCH DIST        000000000002000000000000000000000010000000000159000000000169000000000000000000000001000000000019000000000020000000000001000000000017000000000000000000110011
0502550ARMOREL SCH DIST              000000000002000000000000000000000014000000000177000000000191000000000000000000000001000000000019000000000020000000000000000000000015000000000000000000100000
0502580ASHDOWN SCH DIST              000000000005000000000000000000000192000000002016000000002208000000000000000000000008000000000104000000000112000000000004000000000092000000000000000000000000
0502610ATKINS SCH DIST               000000000002000000000000000000000081000000001096000000001177000000000000000000000002000000000055000000000057000000000004000000000037000000000000000000000000
0502670AUGUSTA SCH DIST              000000000003000000000000000000000057000000000831000000000888000000000000000000000003000000000050000000000053000000000010000000000045000000000000000000000000
0502700BALD KNOB SCH DIST            000000000002000000000000000000000119000000001365000000001484000000000000000000000006000000000081000000000087000000000017000000000084000000000000000000000000
0502730BARTON SCH DIST               000000000002000000000000000000000056000000000662000000000718000000000000000000000002000000000032000000000034000000000009000000000033000000000000000000000000
0502760BATESVILLE SCH DIST           000000000006000000000000000000000164000000002014000000002178000000000000000000000008000000000109000000000117000000000000000000000073000000000000000000000000
0502790BAUXITE SCH DIST              000000000002000000000000000000000044000000000557000000000601000000000000000000000002000000000033000000000035000000000000000000000029000000000000000000000000
0502820BAY-BROWN SCH DIST            000000000002000000000000000000000043000000000600000000000643000000000000000000000002000000000041000000000043000000000002000000000039000000000000000000000000
0502850BEARDEN SCH DIST              000000000002000000000000000000000055000000000587000000000642000000000000000000000002000000000033000000000035000000000004000000000027000000000000000000110000
0502880BEEBE SCH DIST                000000000004000000000000000000000093000000001537000000001630000000000000000000000005000000000079000000000084000000000003000000000061000000000000000000000000
0502910BEEDEVILLE SCH DIST           000000000002000000000000000000000014000000000137000000000151000000000000000000000001000000000014000000000015000000000003000000000011000000000000000000100000
0502940BELLEVILLE SCH DIST           000000000002000000000000000000000010000000000183000000000193000000000000000000000001000000000017000000000018000000000005000000000013000000000000000000000000
0502960BENTON                        000000000007000000000000000000000293000000003445000000003738000000000000000000000012000000000189000000000201000000000018000000000127000000000000000000000000
0503000PARON SCH DIST                000000000002000000000000000000000018000000000224000000000242000000000000000000000001000000000015000000000016000000000002000000000011000000000000000000000000
0503030PEA RIDGE SCH DIST            000000000002000000000000000000000047000000000569000000000616000000000000000000000002000000000032000000000034000000000002000000000028000000000000000000000000
0503060BENTONVILLE SCH DIST          000000000005000000000000000000000226000000003011000000003237000000000000000000000005000000000164000000000169000000000004000000000146000000000000000000000000
0503090BERGMAN SCH DIST              000000000002000000000000000000000042000000000614000000000656000000000000000000000002000000000030000000000032000000000001000000000020000000000000000000110000
0503150BERRYVILLE SCH DIST           000000000002000000000000000000000089000000001110000000001199000000000000000000000004000000000056000000000060000000000008000000000050000000000000000000000000
0503180BIG FLAT SCH DIST             000000000002000000000000000000000000000000000137000000000137000000000000000000000000000000000010000000000010000000000003000000000008000000000000000000000000
0503210BIGGERS-REYNO SCH DIST        000000000002000000000000000000000011000000000212000000000223000000000000000000000001000000000016000000000017000000000001000000000011000000000000000000100000
0503240BISMARCK SCH DIST             000000000002000000000000000000000059000000000621000000000680000000000000000000000002000000000029000000000031000000000002000000000025000000000000000000000000
0503270BLACK ROCK SCH DIST           000000000002000000000000000000000029000000000360000000000389000000000000000000000001000000000022000000000023000000000002000000000012000000000000000000000000
0503300BLEVINS SCH DIST              000000000002000000000000000000000038000000000392000000000430000000000000000000000002000000000024000000000026000000000004000000000021000000000000000000000000
0503320BLYTHEVILLE SCH DIST          000000000009000000000000000000000372000000004104000000004476000000000000000000000015000000000229000000000244000000000034000000000232000000000000000000000000
0503360BODCAW SCH DIST               000000000002000000000000000000000019000000000195000000000214000000000000000000000001000000000012000000000013000000000002000000000008000000000000000000000000
0503420LEAD HILL SCH DIST            000000000002000000000000000000000021000000000322000000000343000000000000000000000001000000000018000000000019000000000003000000000019000000000000000000000000
0503450BOONEVILLE SCH DIST           000000000002000000000000000000000104000000001268000000001372000000000000000000000003000000000057000000000060000000000005000000000033000000000000000000000000
0503480BRADFORD SCH DIST             000000000002000000000000000000000043000000000574000000000617000000000000000000000002000000000029000000000031000000000003000000000028000000000000000000000000
0503510BRADLEY SCH DIST              000000000002000000000000000000000045000000000512000000000557000000000000000000000002000000000030000000000032000000000003000000000031000000000000000000000000
0503570BRIGHT STAR SCH DIST          000000000002000000000000000000000030000000000297000000000327000000000000000000000001000000000017000000000018000000000002000000000012000000000000000000110000
0503630BRINKLEY SCH DIST             000000000003000000000000000000000116000000001483000000001599000000000000000000000005000000000083000000000088000000000022000000000065000000000000000000000000
0503640BROOKLAND SCHOOL DISTRICT     000000000002000000000000000000000054000000000806000000000860000000000000000000000003000000000047000000000050000000000008000000000037000000000000000000000000
0503690BRYANT SCH DIST               000000000005000000000000000000000000000000004150000000004150000000000000000000000000000000000185000000000185000000000004000000000126000000000000000000000000
0503750CABOT SCH DIST                000000000005000000000000000000000186000000003499000000003685000000000000000000000005000000000176000000000181000000000008000000000123000000000000000000000000
0503770CADDO HILLS SCH DIST          000000000002000000000000000000000052000000000545000000000597000000000000000000000002000000000034000000000036000000000002000000000026000000000000000000000000
0503810CALE SCH DIST                 000000000002000000000000000000000009000000000121000000000130000000000000000000000001000000000011000000000012000000000000000000000010000000000000000000100000
0503840CALICO ROCK SCH DIST          000000000002000000000000000000000037000000000435000000000472000000000000000000000002000000000025000000000027000000000003000000000021000000000000000000000000
0503870CAMDEN SCH DIST               000000000004000000000000000000000151000000001949000000002100000000000000000000000004000000000131000000000135000000000022000000000076000000000000000000000000
0503900CARAWAY SCH DIST              000000000002000000000000000000000034000000000367000000000401000000000000000000000001000000000023000000000024000000000002000000000020000000000000000000000000
0503960CARLISLE SCH DIST             000000000002000000000000000000000062000000000787000000000849000000000000000000000003000000000043000000000046000000000004000000000031000000000000000000000000
0503990CARTHAGE SCH DIST             000000000002000000000000000000000013000000000188000000000201000000000000000000000001000000000016000000000017000000000003000000000009000000000000000000100000
0504020WESTSIDE SCH DIST             000000000004000000000000000000000065000000001149000000001214000000000000000000000004000000000066000000000070000000000002000000000057000000000000000000110000
0504050CAVE CITY SCH DIST            000000000002000000000000000000000079000000000950000000001029000000000000000000000003000000000055000000000058000000000007000000000042000000000000000000000000
0504080CEDARVILLE SCH DIST           000000000002000000000000000000000050000000000635000000000685000000000000000000000002000000000030000000000032000000000005000000000024000000000000000000000000
0504110GENOA CENTRAL                 000000000002000000000000000000000041000000000554000000000595000000000000000000000001000000000026000000000027000000000002000000000022000000000000000000000000
0504140LANEBURG CENTRAL SCH DIST     000000000002000000000000000000000018000000000148000000000166000000000000000000000001000000000012000000000013000000000000000000000012000000000000000000000000
0504170CENTRAL SCH DIST              000000000002000000000000000000000034000000000431000000000465000000000000000000000001000000000024000000000025000000000000000000000013000000000000000000000000
0504200CHARLESTON SCH DIST           000000000002000000000000000000000055000000000622000000000677000000000000000000000002000000000034000000000036000000000002000000000025000000000000000000000000
0504260ROSS VAN NESS SCH DIST        000000000002000000000000000000000022000000000208000000000230000000000000000000000001000000000016000000000017000000000000000000000008000000000000000000000000
0504290CHIDESTER SCH DIST            000000000002000000000000000000000020000000000209000000000229000000000000000000000001000000000018000000000019000000000002000000000018000000000000000000000000
0504350CLARENDON SCH DIST            000000000003000000000000000000000056000000000665000000000721000000000000000000000003000000000036000000000039000000000013000000000031000000000000000000000000
0504380CLARKSVILLE SCH DIST          000000000003000000000000000000000130000000001295000000001425000000000000000000000005000000000068000000000073000000000003000000000046000000000000000000000000
0504410CLINTON SCH DIST              000000000002000000000000000000000075000000000901000000000976000000000000000000000003000000000043000000000046000000000007000000000038000000000000000000000000
0504530COMMON SCH DIST               000000000002000000000000000000000014000000000193000000000207000000000000000000000001000000000015000000000016000000000000000000000011000000000000000000100000
0504560CONCORD SCH DIST              000000000002000000000000000000000034000000000512000000000546000000000000000000000002000000000031000000000033000000000000000000000031000000000000000000000000
0504590CONWAY SCH DIST               000000000008000000000000000000000323000000004452000000004775000000000000000000000010000000000230000000000239000000000016000000000162000000000000000000000000
0504620CORD-CHARLOTTE SCH DIST       000000000002000000000000000000000025000000000220000000000245000000000000000000000001000000000014000000000015000000000001000000000012000000000000000000000000
0504650CORNING SCH DIST              000000000003000000000000000000000091000000001240000000001331000000000000000000000006000000000064000000000070000000000006000000000053000000000000000000000000
0504680COTTER SCH DIST               000000000002000000000000000000000039000000000553000000000592000000000000000000000002000000000032000000000034000000000001000000000021000000000000000000110000
0504710COTTON PLANT SCH DIST         000000000002000000000000000000000017000000000390000000000407000000000000000000000001000000000030000000000031000000000005000000000028000000000000000000000000
0504740COUNTY LINE SCH DIST          000000000002000000000000000000000038000000000561000000000599000000000000000000000002000000000031000000000033000000000003000000000026000000000000000000000000
0504770CRAWFORDSVILLE SCH DIST       000000000003000000000000000000000050000000000673000000000723000000000000000000000002000000000044000000000046000000000003000000000044000000000000000000000000
0504800CROSSETT SCH DIST             000000000006000000000000000000000217000000002950000000003167000000000000000000000006000000000155000000000161000000000009000000000112000000000000000000000000
0504830CUSHMAN SCH DIST              000000000002000000000000000000000017000000000294000000000311000000000000000000000001000000000015000000000016000000000001000000000015000000000000000000000000
0504860CUTTER-MORNING STAR SCH DIST  000000000002000000000000000000000039000000000514000000000553000000000000000000000002000000000028000000000030000000000001000000000022000000000000000000000000
0504890DANVILLE SCH DIST             000000000002000000000000000000000040000000000512000000000552000000000000000000000002000000000029000000000031000000000001000000000021000000000000000000000000
0504930DARDANELLE                    000000000003000000000000000000000097000000001325000000001422000000000000000000000002000000000074000000000076000000000006000000000057000000000000000000000000
0504950DE WITT SCH DIST              000000000004000000000000000000000098000000001331000000001429000000000000000000000005000000000077000000000082000000000005000000000055000000000000000000000000
0504980DECATUR SCH DIST              000000000002000000000000000000000051000000000416000000000467000000000000000000000002000000000024000000000026000000000002000000000022000000000000000000000000
0505010DEER SCH DIST                 000000000002000000000000000000000033000000000314000000000347000000000000000000000001000000000020000000000021000000000002000000000020000000000000000000000000
0505040DELAPLAINE SCH DIST           000000000002000000000000000000000013000000000286000000000299000000000000000000000001000000000020000000000021000000000001000000000017000000000000000000100000
0505070DELIGHT SCH DIST              000000000002000000000000000000000022000000000334000000000356000000000000000000000001000000000019000000000020000000000003000000000020000000000000000000000000
0505100DELL SCH DIST                 000000000002000000000000000000000021000000000312000000000333000000000000000000000001000000000023000000000024000000000001000000000017000000000000000000000000
0505110DELTA SPECIAL SCH DIST        000000000002000000000000000000000025000000000458000000000483000000000000000000000001000000000031000000000032000000000000000000000034000000000000000000000000
0505130DE QUEEN SCH DIST             000000000003000000000000000000000109000000001228000000001337000000000000000000000005000000000068000000000073000000000006000000000056000000000000000000000000
0505170DERMOTT SCH DIST              000000000003000000000000000000000099000000001310000000001409000000000000000000000004000000000079000000000083000000000007000000000055000000000000000000000000
0505190DES ARC SCH DIST              000000000002000000000000000000000044000000000790000000000834000000000000000000000002000000000043000000000045000000000002000000000042000000000000000000000000
0505220DESHA SCH DIST                000000000002000000000000000000000025000000000270000000000295000000000000000000000001000000000017000000000018000000000001000000000014000000000000000000110000
0505280DESHA-DREW SCH DIST           000000000002000000000000000000000020000000000252000000000272000000000000000000000001000000000019000000000020000000000009000000000021000000000000000000000000
0505310DEVALLS BLUFF SCH DIST        000000000002000000000000000000000035000000000464000000000499000000000000000000000002000000000031000000000033000000000006000000000032000000000000000000000000
0505340DIERKS SCH DIST               000000000002000000000000000000000045000000000574000000000619000000000000000000000002000000000034000000000036000000000001000000000026000000000000000000110000
0505410DOLLARWAY SCH DIST            000000000005000000000000000000000180000000002093000000002273000000000000000000000008000000000117000000000125000000000020000000000091000000000000000000000000
0505430DOVER SCH DIST                000000000002000000000000000000000081000000000956000000001037000000000000000000000003000000000047000000000050000000000007000000000043000000000000000000000000
0505470DREW CENTRAL                  000000000002000000000000000000000062000000000743000000000805000000000000000000000003000000000039000000000042000000000000000000000041000000000000000000000000
0505500DUMAS SCH DIST                000000000004000000000000000000000183000000002176000000002359000000000000000000000007000000000107000000000114000000000018000000000091000000000000000000000000
0505550EARLE SCH DIST                000000000003000000000000000000000088000000001087000000001175000000000000000000000004000000000058000000000062000000000005000000000043000000000000000000000000
0505580EAST END SCH DIST             000000000002000000000000000000000029000000000415000000000444000000000000000000000001000000000024000000000025000000000001000000000022000000000000000000000000
0505670UNION SCH DIST                000000000002000000000000000000000025000000000337000000000362000000000000000000000001000000000016000000000017000000000001000000000011000000000000000000000000
0505680EL DORADO SCHOOL DISTRICT     000000000012000000000000000000000281000000005032000000005313000000000000000000000014000000000323000000000337000000000023000000000257000000000000000000000000
0505740ELAINE                        000000000003000000000000000000000075000000000822000000000897000000000000000000000003000000000052000000000055000000000011000000000052000000000000000000000000
0505760ELKINS SCH DIST               000000000002000000000000000000000040000000000570000000000610000000000000000000000002000000000028000000000030000000000001000000000025000000000000000000000000
0505790EMERSON SCH DIST              000000000002000000000000000000000025000000000367000000000392000000000000000000000001000000000025000000000026000000000002000000000023000000000000000000000000
