0100001N/A           FORT RUCKER                   P.O. BOX 279             FT. RUCKER        36362      045DALE                     36   KG06450021802 
0100002210           DEPARTMENT OF YOUTH SERVICES  P.O. BOX 66              MT. MEIGS         36057      101MONTGOMERY               31   0712450052402 
0100003N/A           MAXWELL AIR BASE              BUILDING 538             MAXWELL A.F.B.    36112      101MONTGOMERY               56   KG06450052401 
0100004N/A           FORT MCCLELLAN                LITTLE BRAND & MORTON RD.FT. MCCLELLAN     36205      015CALHOUN                  46   KG06450004502 
0100005101           ALBERTVILLE CITY BOARD        P O BOX 1487             ALBERTVILLE       35950    00095MARSHALL                 41000KG121400000033
0100006048           MARSHALL COUNTY S D           RT 2 BOX 403B            GUNTERSVILLE      35976      095MARSHALL                 61   KG121100000033
0100030102           ALEXANDER CITY SCH DIST       P O BOX 1205             ALEXANDER CY      35010      123TALLAPOOSA               61000KG121200000030
0100060104           ANDALUSIA CITY SCH DIST       122 SIXTH AVENUE         ANDALUSIA         36420      039COVINGTON                61000KG121200000030
0100090105           ANNISTON CITY SCH DIST        P O BOX 1500             ANNISTON          36202      015CALHOUN                  61000KG121200045010
0100100106           ARAB CITY SCH DIST            P O DRAWER O             ARAB              35016      095MARSHALL                 61000KG121100000030
0100120107           ATHENS CITY SCH DIST          313 E WASHINGTON ST      ATHENS            35611      083LIMESTONE                61000KG121200344020
0100180109           ATTALLA CITY SCH DIST         101 CASE AVENUE          ATTALLA           35954      055ETOWAH                   61000KG121200288020
0100210110           AUBURN CITY SCH DIST          P O BOX 2208             AUBURN            36830      081LEE                      61000KG121200000030
0100240001           AUTAUGA COUNTY SCH DIST       P O BOX 130              PRATTVILLE        36067      001AUTAUGA                  61000KG121100524020
0100270002           BALDWIN COUNTY SCH DIST       175 COURTHOUSE SQUARE    BAY MINETTE       36507      003BALDWIN                  61000KG121100516020
0100300003           BARBOUR COUNTY SCH DIST       P O BOX 219              CLAYTON           36016      005BARBOUR                  61000KG121100000030
0100330113           BESSEMER CITY SCH DIST        P O BOX 868              BESSEMER          35020      073JEFFERSON                61000KG121200100010
0100360004           BIBB COUNTY SCH DIST          103 S W DAVIDSON DR      CENTREVILLE       35042      007BIBB                     61000KG121100000030
0100390114           BIRMINGHAM CITY SCH DIST      P O DRAWER 10007         BIRMINGHAM        35202      073JEFFERSON                51000KG121200100010
0100420005           BLOUNT COUNTY SCH DIST        P O BOX 578              ONEONTA           35121      009BLOUNT                   61000KG121100100020
0100450116           BREWTON CITY SCH DIST         P O BOX 59               BREWTON           36427      053ESCAMBIA                 61000KG121200000030
0100480006           BULLOCK COUNTY SCH DIST       P O DRAWER 231           UNION SPRINGS     36089      011BULLOCK                  61000KG121100000030
0100510007           BUTLER COUNTY SCH DIST        101 BUTLER CIR           GREENVILLE        36037      013BUTLER                   61000KG121200000030
0100540008           CALHOUN COUNTY SCH DIST       P O BOX 2084             ANNISTON          36202      015CALHOUN                  61000KG121100045020
0100570120           CARBON HILL CITY SCH DIST     P O BOX 370              CARBON HILL       35549      127WALKER                   61000KG121200100020
0100600009           CHAMBERS COUNTY SCH DIST      BOX 408D                 LAFAYETTE         36862      017CHANBERS                 61000KG121100000030
0100630010           CHEROKEE COUNTY SCH DIST      130 E MAIN ST            CENTRE            35960      019CHEROKEE                 61000KG121100000030
0100660011           CHILTON COUNTY SCH DIST       1705 LAY DAM RD          CLANTON           35045      021CHILTON                  61000KG121100000030
0100690012           CHOCTAW COUNTY SCH DIST       914 RIDERWOOD DR         BUTLER            36904      023CHOCTAW                  61000KG121100000030
0100720013           CLARKE COUNTY SCH DIST        BOX 936                  GROVE HILL        36451      025CLARKE                   61000KG121100000030
0100750014           CLAY COUNTY SCH DIST          P O BOX 278              ASHLAND           36251      027CLAY                     61000KG121100000030
0100780015           CLEBURNE COUNTY SCH DIST      P O BOX 248              HEFLIN            36264      029CLEBURNE                 61000KG121100000030
0100810016           COFFEE COUNTY SCH DIST        P O DRAWER D             ELBA              36323      031COFFEE                   61000KG121100000030
0100840017           COLBERT COUNTY SCH DIST       P O BOX 270              TUSCUMBIA         35674      033COLBERT                  61000KG121100265020
0100870018           CONECUH COUNTY SCH DIST       P O BOX 548              EVERGREEN         36401      035CONECUH                  61000KG121100000030
0100900019           COOSA COUNTY SCH DIST         P O BOX 37               ROCKFORD          35136      037COOSA                    61000KG121100000030
0100930020           COVINGTON COUNTY SCH DIST     BOX 460                  ANDALUSIA         36420      039COVINGTON                61000KG121100000030
0100960021           CRENSHAW COUNTY SCH DIST      P O BOX 187              LUVERNE           36049      041CRENSHAW                 61000KG121100000030
0100990125           CULLMAN CITY SCH DIST         P O BOX 887              CULLMAN           35055      043CULLMAN                  61000KG121200000030
0101020022           CULLMAN COUNTY SCH DIST       P O BOX 518              CULLMAN           35055      043CULLMAN                  61000KG121100000030
0101050023           DALE COUNTY SCH DIST          P O BOX 978              OZARK             36361      045DALE                     61000KG121100218020
0101080126           DALEVILLE CITY SCH DIST       323 N DALEVILLE AVE      DALEVILLE         36322      045DALE                     61000KG121200218020
0101110024           DALLAS COUNTY SCH DIST        P O BOX 1056             SELMA             36701      047DALLAS                   61000KG121100000030
0101140025           DE KALB COUNTY SCH DIST       BOX 777                  FORT PAYNE        35967      049DE KALB                  61000KG121100000030
0101170127           DECATUR CITY SCH DIST         302 4TH AVE NE           DECATUR           35601      103MORGAN                   61000KG121200000030
0101200128           DEMOPOLIS CITY SCH DIST       P O BOX 700              DEMOPOLIS         36732      091MARENGO                  61000KG121200000030
0101230130           DOTHAN CITY SCH DIST          500 DUSY ST              DOTHAN            36301      069HOUSTON                  51000KG121200218010
0101260131           ELBA CITY SCH DIST            P O DRAWER F             ELBA              36323      031COFFEE                   61000KG121200000030
0101290026           ELMORE COUNTY SCH DIST        P O BOX 617              WETUMPKA          36092      051ELMORE                   61000KG121100524020
0101320132           ENTERPRISE CITY SCH DIST      502 E WATTS AVE          ENTERPRISE        36330      031COFFEE                   61000KG121200000030
0101350027           ESCAMBIA COUNTY SCH DIST      P O BOX 307              BREWTON           36427      053ESCAMBIA                 61000KG121100000030
0101380028           ETOWAH COUNTY SCH DIST        109 COURTHSE 800 FORREST GADSDEN           35901      055ETOWAH                   61000KG121100288020
0101410133           EUFAULA CITY SCH DIST         SANFORD AVENUE           EUFAULA           36027      005BARBOUR                  61000KG121200000030
0101440137           FAIRFIELD CITY SCH DIST       P O BOX 110              FAIRFIELD         35064      073JEFFERSON                61000KG121200100020
0101470029           FAYETTE COUNTY SCH DIST       P O BOX 599              FAYETTE           35555      057FAYETTE                  61000KG121100000030
0101500140           FLORALA CITY SCH DIST         P O BOX 386              FLORALA           36442      039COVINGTON                61000KG081200000030
0101530141           FLORENCE CITY SCH DIST        541 RIVERVIEW DR         FLORENCE          35630      077LAUDERDALE               61000KG121200265010
0101560143           FORT PAYNE CITY SCH DIST      P O BOX 61               FORT PAYNE        35967      049DE KALB                  61000KG121200000030
0101590030           FRANKLIN COUNTY SCH DIST      P O BOX 610              RUSSELLVILLE      35653      059FRANKLIN                 61000KG121100000030
0101620144           GADSDEN CITY SCH DIST         P O BOX 184              GADSDEN           35999      055ETOWAH                   61000KG121200288010
0101640146           GENEVA CITY SCH DIST          505 N CHEROKEE ST        GENEVA            36340      061GENEVA                   61000KG121200000030
0101660031           GENEVA COUNTY SCH DIST        P O BOX 250              GENEVA            36340      061GENEVA                   61000KG121100000030
0101680032           GREENE COUNTY SCH DIST        P O BOX 569              EUTAW             35462      063GREENE                   61000KG121100000030
0101690154           GUNTERSVILLE CITY SCH DIST    P O BOX 129              GUNTERSVILLE      35976      095MARSHALL                 61000KG121200000030
0101710033           HALE COUNTY SCH DIST          P O BOX 360              GREENSBORO        36744      065HALE                     61000KG121100000030
0101720155           HALEYVILLE CITY SCH DIST      1800 E 20TH ST           HALEYVILLE        35565      133WINSTON                  61000KG121200000030
0101730156           HARTSELLE CITY SCH DIST       P O BOX 97               HARTSELLE         35640      103MORGAN                   61000KG121200000030
0101740034           HENRY COUNTY SCH DIST         P O BOX 635              ABBEVILLE         36310      067HENRY                    61000KG121100000030
0101760157           HOMEWOOD CITY SCH DIST        P O BOX 59366            HOMEWOOD          35259      073JEFFERSON                61000KG121200100020
0101770035           HOUSTON COUNTY SCH DIST       P O BOX 1688             DOTHAN            36301      069HOUSTON                  51000KG121100218020
0101800159           HUNTSVILLE CITY SCH DIST      P O BOX 1256             HUNTSVILLE        35801      089MADISON                  61000KG121100344010
0101830036           JACKSON COUNTY SCH DIST       COURTHOUSE-SUITE 20      SCOTTSBORO        35768      071JACKSON                  61000KG121100000030
0101860162           JACKSONVILLE CITY SCH DIST    N PELHAM RD              JACKSONVILLE      36265      015CALHOUN                  51000KG121200045020
0101890163           JASPER CITY SCH DIST          P O BOX 500              JASPER            35501      127WALKER                   61000KG121200100020
0101920037           JEFFERSON COUNTY SCH DIST     A 400 COURTHOUSE         BIRMINGHAM        35263      073JEFFERSON                51000KG121100100020
0101950038           LAMAR COUNTY SCH DIST         P O BOX 469              VERNON            35592      075LAMAR                    61000KG121100000030
0101980165           LANETT CITY SCH DIST          P O BOX 329              LANETT            36863      017CHANBERS                 61000KG121200000030
0102010039           LAUDERDALE COUNTY SCH DIST    P O BOX 278              FLORENCE          35631      077LAUDERDALE               61000KG121100265020
0102040040           LAWRENCE COUNTY SCH DIST      602 S MARKET ST          MOULTON           35650      079LAWRENCE                 61000KG121100000030
0102070041           LEE COUNTY SCH DIST           BOX 120                  OPELIKA           36801      081LEE                      61000KG121100000030
0102100042           LIMESTONE COUNTY SCH DIST     300 S JEFFERSON ST       ATHENS            35611      083LIMESTONE                61000KG121100344020
0102130168           LINDEN CITY SCH DIST          BOX C                    LINDEN            36748      091MARENGO                  61000KG121200000030
0102160043           LOWNDES COUNTY SCH DIST       P O BOX 755              HAYNEVILLE        36040      085LOWNDES                  61000KG121100000030
0102190044           MACON COUNTY SCH DIST         P O BOX 90               TUSKEGEE          36083      087MACON                    61000KG121100000030
0102220045           MADISON COUNTY SCH DIST       P O BOX 226              HUNTSVILLE        35804      089MADISON                  61000KG121100344020
0102250046           MARENGO COUNTY SCH DIST       BOX 398                  LINDEN            36748      091MARENGO                  61000KG121100000030
0102280170           MARION CITY SCH DIST          BOX 960                  MARION            36756      105PERRY                    61000KG121200000030
0102310047           MARION COUNTY SCH DIST        P O BOX 67               HAMILTON          35570      093MARION                   61000KG121100000030
0102350171           MIDFIELD CITY SCH DIST        P O DRAWER 7889          MIDFIELD          35228      073JEFFERSON                61000KG121200100020
0102370049           MOBILE COUNTY SCH DIST        P O BOX 1327             MOBILE            36633      097MOBILE                   71000KG121100516010
0102400050           MONROE COUNTY SCH DIST        BOX 159                  MONROEVILLE       36461      099MONROE                   61000KG121100000030
0102430051           MONTGOMERY COUNTY SCHS        P O BOX 1991             MONTGOMERY        36197      101MONTGOMERY               71000KG121100524010
0102480052           MORGAN COUNTY SCH DIST        1325 PT MALLARD PKWY SE  DECATUR           35601      103MORGAN                   61000KG121100000030
0102490175           MOUNTAIN BROOK CITY SCH DIST  P O BOX 9036             MOUNTAIN BRK      35213      073JEFFERSON                61000KG121200100020
0102520176           MUSCLE SHOALS CITY SCH DIST   P O BOX 2730             MUSCLE SHOALS     35660      033COLBERT                  61000KG121200265020
0102550178           ONEONTA CITY SCH DIST         RT 1 BOX 14              ONEONTA           35121      009BLOUNT                   61000KG121200100020
0102580179           OPELIKA CITY SCH DIST         P O BOX 2469             OPELIKA           36802      081LEE                      61000KG121200000030
0102610180           OPP CITY SCH DIST             P O BOX 428              OPP               36467      039COVINGTON                61000KG121200000030
0102635181           OXFORD CITY SCH DIST          310 SECOND ST E          OXFORD            36203      015CALHOUN                  61000KG121200045020
0102640182           OZARK CITY SCH DIST           P O BOX 788              OZARK             36360      045DALE                     51000KG121200218020
0102650183           PELL CITY SCH DIST            25-12TH ST S             PELL CITY         35125      115ST CLAIR                 61000KG121200100020
0102670053           PERRY COUNTY SCH DIST         P O BOX 900              MARION            36756      105PERRY                    61000KG121100000030
0102700184           PHENIX CITY SCH DIST          P O BOX 460              PHENIX CITY       36867      113RUSSELL                  61000KG121200180020
0102730054           PICKENS COUNTY SCH DIST       P O BOX 32               CARROLLTON        35447      107PICKENS                  61000KG121100000030
0102760185           PIEDMONT CITY SCH DIST        P O BOX 232              PIEDMONT          36272      015CALHOUN                  61000KG121200045020
0102790055           PIKE COUNTY SCH DIST          109 E CHURCH ST          TROY              36081      109PIKE                     61000KG121100000030
0102820056           RANDOLPH COUNTY SCH DIST      P O BOX 288              WEDOWEE           36278      111RANDOLPH                 61000KG121100000030
0102850188           ROANOKE CITY SCH DIST         BOX 312                  ROANOKE           36274      111RANDOLPH                 61000KG121200000030
0102880057           RUSSELL COUNTY SCH DIST       P O BOX 908              PHENIX CITY       36867      113RUSSELL                  61000KG121100180020
0102910189           RUSSELLVILLE CITY SCH DIST    P O BOX 880              RUSSELLVILLE      35653      059FRANKLIN                 61000KG121200000030
0102940190           SCOTTSBORO CITY SCH DIST      906 S SCOTT ST           SCOTTSBORO        35768      071JACKSON                  61000KG121200000030
0102970191           SELMA CITY SCH DIST           P O BOX F                SELMA             36701      047DALLAS                   61000KG121200000030
0103000192           SHEFFIELD CITY SCH DIST       P O BOX 460              SHEFFIELD         35660      033COLBERT                  61000KG121200265020
0103030059           SHELBY COUNTY SCH DIST        410 E COLLEGE ST         COLUMBIANA        35051      117SHELBY                   61000KG121100100020
0103062058           SAINT CLAIR COUNTY SCH DIST   P O BOX 248              ASHVILLE          35953      115ST CLAIR                 61000KG121200100020
0103090060           SUMTER COUNTY SCH DIST        P O BOX 10               LIVINGSTON        35470      119SUMTER                   61000KG121100000030
0103120193           SYLACAUGA CITY DIST           P O DRAWER 1127          SYLACAUGA         35150      121TALLEDEGA                61000KG121200000030
0103150194           TALLADEGA CITY SCH DIST       P O BOX 946              TALLADEGA         35160      121TALLEDEGA                61000KG121200000030
0103180061           TALLADEGA COUNTY SCH DIST     P O BOX 887              TALLADEGA         35160      121TALLEDEGA                61000KG121100000030
0103210062           TALLAPOOSA COUNTY SCH DIST    COURTHOUSE               DADEVILLE         36853      123TALLAPOOSA               61000KG121100000030
0103240195           TALLASSEE CITY SCH DIST       P O BOX 488              TALLASSEE         36078      051ELMORE                   61000KG121200524020
0103270197           TARRANT CITY SCH DIST         1318 ALABAMA ST          TARRANT           35217      073JEFFERSON                61000KG121200100020
0103300198           THOMASVILLE CITY SCH DIST     GATES DR                 THOMASVILLE       36784      025CLARKE                   61000KG121200000030
0103330199           TROY CITY SCH DIST            P O BOX 529              TROY              36081      109PIKE                     61000KG121200000030
0103360200           TUSCALOOSA CITY SCH DIST      1100 21ST ST E           TUSCALOOSA        35405      125TUSCALOOSA               71000KG121200860010
0103390063           TUSCALOOSA COUNTY SCH DIST    P O DRAWER 2568          TUSCALOOSA        35403      125TUSCALOOSA               61000KG121100860020
0103420201           TUSCUMBIA CITY SCH DIST       P O BOX 149              TUSCUMBIA         35674      033COLBERT                  61000KG121200265020
0103430202           VESTAVIA HILLS SCH DIST       P O BOX 20826            VESTAVIA          35243      073JEFFERSON                61000KG121200100020
0103450064           WALKER COUNTY SCH DIST        P O BOX 311              JASPER            35501      127WALKER                   61000KG121100100020
0103480065           WASHINGTON COUNTY SCH DIST    P O DRAWER L             CHATOM            36518      129WASHINGTON               61000KG121100000030
0103510066           WILCOX COUNTY SCH DIST        P O BOX 160              CAMDEN            36726      131WILCOX                   61000KG121100000030
0103540204           WINFIELD CITY SCH DIST        P O BOX 70               WINFIELD          35594      093MARION                   61000KG121200000030
0103580067           WINSTON COUNTY SCH DIST       P O BOX 9                DOUBLE SPG        35553      133WINSTON                  61000KG121100000030
020000131            LOWER KUSKOKWIN SCH DISTRICT  PO BOX 305               BETHEL            99559      050BETHEL                   61   PK124200000033
0200002001           ADAK REGION SCHOOLS           ADAK NAVAL STATION       FPO SEATTLE       98791    WA010ALEUTIAN ISLANDS         61000PK124200000030
020000332            LOWER YUKON SCHOOL DISTRICT   PO BOX 200               MT VILLAGE        99632      050BETHEL                   61000KG124200000033
020000454            YUPIIT SCHOOL DISTRICT        PO BOX 100               AKIACHAK          99551      050BETHEL                   61000KG124200000033
020000555            KASHUNAMUIT SCHOOL DISTRICT   985 KSD WAY              CHEVAK            99563      050BETHEL                   61000KG124200000033
020000698            MOUNT EDGECUMBE HIGH SCHOOL   1297 SEWARD AVE          SITKA             99835      220SITKA                    45   0912450000003 
0200010004           ALEUTIAN REGION SCH DIST      640 WEST 36 AVE STE 3    ANCHORAGE         99503      010ALEUTIAN ISLANDS         61000PK124200000030
0200020007           BERING STRAIT SCH DIST        PO BOX 225               UNALAKLEET        99684      180NOME                     61000PK124200000030
0200030008           BRISTOL BAY BOROUGH SCH DIST  PO BOX 169               NAKNEK            99633      060BRISTOL BAY BOROUGH      61000KG122200000030
0200050003           ALASKA GATEWAY SCH DIST       PO BOX 226               TOK               99780      240SOUTHEAST FAIRBANKS      61000PK124200000030
0200060012           CORDOVA CITY SCH DIST         PO BOX 140               CORDOVA           99574      080CORDOVA-MCCARTHY         61000KG122200000030
0200070011           COPPER RIVER REAA SCH DIST    PO BOX 108               GLENNALLEN        99588      260VALDEZ-CHITINA-WHITTIER  61000KG124200000030
0200090013           CRAIG CITY SCH DIST           PO BOX 800               CRAIG             99921      200PRINCE OF WALES          61000KG122200000030
0200100014           DELTA GREELY SCH DIST         PO BOX 527               DELTA JUNCT       99737      090FAIRBANKS                61000PK124200000030
0200120015           DILLINGHAM CITY SCH DIST      PO BOX 202               DILLINGHAM        99576      070BRISTOL BAY              61000PK122200000030
0200130017           GALENA CITY SCH DIST          PO BOX 299               GALENA            99741      290YUKON-KOYUKUK            61000KG122200000030
0200150025           KETCHIKAN GATEWAY BOR SCH DISTPOUCH Z                  KETCHIKAN         99901      130KETCHIKAN                61000PK122200000030
0200180005           ANCHORAGE SCH DIST            4600 DEBARR RD           ANCHORAGE         99502      020ANCHORAGE                61000PK122200038020
0200210022           JUNEAU BOROUGH SCHOOLS        10014 CRAZY HORSE DR     JUNEAU            99801      110JUNEAU                   61000PK122200000030
0200240042           SITKA BOROUGH SCH DIST        PO BOX 179               SITKA             99835      220SITKA                    61000PK122200000030
0200270018           HAINES BOROUGH SCH DIST       PO BOX 1289              HAINES            99827      100HAINES                   61000PK122200000030
0200300019           HOONAH CITY SCH DIST          PO BOX 157               HOONAH            99829      230SKAGWAY-YAKUTAT          61000PK122200000030
0200330020           HYDABURG CITY SCH DIST        PO BOX 109               HYDABURG          99922      200PRINCE OF WALES          61000KG122200000030
0200360023           KAKE CITY SCH DIST            PO BOX 450               KAKE              99830      280WRANGELL-PETERSBURG      61000KG122200000030
0200390024           KENAI PENINSULA BOROUGH SCHS  148 N BINKLEY ST         SOLDOTNA          99669      120KENAI-COOK INLET         61000PK122200000030
0200420026           KING COVE CITY SCH DIST       PO BOX 6                 KING COVE         99612      010ALEUTIAN ISLANDS         61000KG122200000030
0200450027           KLAWOCK CITY SCH DIST         PO BOX 9                 KLAWOCK           99925      200PRINCE OF WALES          61000KG122200000030
0200480028           KODIAK ISLAND BOROUGH SCH DI  722 MILL BAY RD          KODIAK            99615      150KODIAK                   61000PK122200000030
0200485030           LAKE AND PENINSULA SCH DIST   PO BOX 498               KING SALMON       99613      010ALEUTIAN ISLANDS         61000PK124200000030
0200510033           MATANUSKA-SUSITNA BOR SCHS    PO BOX AB                PALMER            99645      170MATANUSKA-SUSITNA        61000PK122200000030
0200520021           IDITAROD AREA SCH DIST        PO BOX 90                MCGRATH           99627      160KUSKOKWIM                61000PK124200000030
0200525006           ANNETTE ISLAND SCH DIST       PO BOX 7                 METLAKATLA        99926      190OUTER KETCHICAN          61000KG124200000030
0200540034           NENANA CITY SCH DIST          PO BOX 10                NENANA            99760      290YUKON-KOYUKUK            61000PK122200000030
0200570035           NOME CITY SCH DIST            PO BOX 131               NOME              99762      180NOME                     61000PK122200000030
0200600016           FAIRBANKS NORTH STAR BOR S D  PO BOX 1250              FAIRBANKS         99701      090FAIRBANKS                61000PK122200000030
0200610036           NORTH SLOPE BOROUGH SCH DIST  PO BOX 169               BARROW            99723      040BARROW-NORTH SLOPE       61000PK122200000030
0200625037           NORTHWEST ARCTIC SCH DIST     PO BOX 51                KOTZEBUE          99752      140KOBUK                    61000KG124200000030
0200630038           PELICAN CITY SCH DIST         PO BOX 603               PELICAN           99832      230SKAGWAY-YAKUTAT          61000KG122200000030
0200660039           PETERSBURG CITY SCH DIST      PO BOX 289               PETERSBURG        99833      280WRANGELL-PETERSBURG      61000KG122200000030
0200670040           PRIBILOF ISLAND SCH DIST      N/A                      ST PAUL           99660      010ALEUTIAN ISLANDS         61000KG114200000030
0200680046           SAINT MARYS CITY SCH DIST     PO BOX 171               ST MARYS          99658      270WADE HAMPTON             61000PK122200000030
0200683041           SAND POINT SCHOOLS            PO BOX 158               SAND POINT        99661      010ALEUTIAN ISLANDS         61000KG122200000030
0200690043           SKAGWAY CITY SCH DIST         PO BOX 497               SKAGWAY           99840      230SKAGWAY-YAKUTAT          61000PK122200000030
0200700044           SOUTHEAST ISLAND SCH DIST     PO BOX 8340              KETCHIKAN         99901      200PRINCE OF WALES          61000KG124200000030
0200710045           SOUTHWEST REGION SCH DIST     PO BOX 196               DILLINGHAM        99576      060BRISTOL BAY BOROUGH      61000KG124200000030
0200715053           TANANA CITY SCHOOL DIST       PO BOX 89                TANANA            99777      290YUKON-KOYUKUK            61000KG122200000030
0200720047           UNALASKA CITY SCH DIST        POUCH 260                UNALASKA          99685      010ALEUTIAN ISLANDS         61000KG122200000030
0200730009           CHATHAM REGION SCHOOLS        PO BOX 109               ANGOON            99820      231                         61000KG124200000030
0200760029           KUSPUK SCHOOL DISTRICT        PO BOX 108               ANIAK             99557      160KUSKOKWIM                61000PK124200000030
0200770002           RAIL BELT SCHOOL DISTRICT     DRAWER 129               HEALY             99743      290YUKON-KOYUKUK            61000KG124200000030
0200775051           YUKON FLATS SCH DIST          PO BOX 359               FORT YUKON        99740      250UPPER YUKON              61000PK124200000030
0200780048           VALDEZ CITY SCH DIST          PO BOX 398               VALDEZ            99686      260VALDEZ-CHITINA-WHITTIER  61000PK122200000030
0200800010           CHUGACH SCH DIST              PO BOX 638               WHITTIER          99502      260VALDEZ-CHITINA-WHITTIER  61000PK124200000030
0200810049           WRANGELL CITY SCH DIST        PO BOX 651               WRANGELL          99929      280WRANGELL-PETERSBURG      61000KG122200000030
0200840050           YAKUTAT CITY SCH DIST         PO BOX 427               YAKUTAT           99689      230SKAGWAY-YAKUTAT          61000KG122200000030
0200862052           YUKON KOYUKUK SCH DIST        PO BOX 309               NENANA            99760      290YUKON-KOYUKUK            61000PK124200000030
0300030N/A           TERRITORY OF AMERICAN SAMOA   N/A                      PAGO PAGO         96799      000                         61000PK122200000030
0400001070293        CAVE CREEK UNF S D #93        PO BOX 426               CAVE CREEK        85331      013MARICOPA                 71000KG122200620020
0400002080502        COLORADO CITY HIGH S D        P O BOX 268              COLORADO CITY     86021      015MOHAVE                   7100009122200000030
0400003130251        CHINO VALLEY UNF S D #51      PO BOX 225               CHINO VALLEY      86323      025YAVAPAI                  71000KG092200000030
0400004130403        CLARKDALE-JEROME ELEM S D     P O BOX 248              CLARKDALE         86324      025YAVAPAI                  71000KG082200000030
0400005150430        SALOME CON EL D #030          PO BOX 358               SALOME            85348      012                         71000KG082200000030
0400007N/A           SHIPROCK AGENCY, B I A        P O BOX 3239             SHIPROCK          87420    NM                            46       450000003 
0400008N/A           HOPI AGENCY, B I A            P O BOX 158              KEAMS CANYON      86034                                  46       450000003 
0400009N/A           PIMA AGENCY, B I A            N/A                      SACATON           85247                                  46       450000003 
0400010N/A           PAPAGO AGENCY, B I A          P O BOX 578              SELLS             85634                                  46       450000003 
0400011N/A           FORT APACHE AGENCY, B I A     P O BOX 560              WHITERIVER        85941                                  46       450000003 
0400012N/A           PHOENIX AREA OFFICE, B I A    3030 NORTH CENTRAL       PHOENIX           85011      013MARICOPA                 46       450062001 
0400013N/A           WESTERN NAVAJO AGENCY, B I A  P O BOX 746              TUBA CITY         86045                                  46       450000003 
0400014N/A           CHINLE AGENCY, B I A          P O BOX 827              CHINLE            86503                                  46       450000003 
0400015N/A           FORT DEFIANCE AGENCY, B I A   P O BOX 110              FORT DEFIANCE     86504                                  46       450000003 
0400450070516        AGUA FRIA UNION HIGH S D 16   530 EAST RILEY DRIVE     AVONDALE          85323      013MARICOPA                 7100009122200620020
0400480070363        AGUILA ELEM SCH DIST 63       P O BOX 218              AGUILA            85320      013MARICOPA                 71000KG082200620020
0400520100215        AJO UNIFIED SCH DIST 15       P O BOX 68               AJO               85321      019PIMA                     71000KG122200852020
0400600070468        ALHAMBRA ELEM SCH DIST 68     3001 WEST HAZELWOOD      PHOENIX           85017      013MARICOPA                 71000KG082200620020
0400630010307        ALPINE ELEM SCH DIST 07       P O BOX 170              ALPINE            85920      001APACHE                   71000KG082200000030
0400680100210        AMPITHEATER UNF S D 10        701 WEST WETMORE         TUCSON            85705      019PIMA                     71000KG122200852020
0400720140550        ANTELOPE U HI S D 50          ROUTE 1 BOX 26           WELLTON           85356      027YUMA                     7100009122200000030
0400750020342        APACHE ELEM SCH DIST 42       P O BOX 1118             DOUGLAS           856081118  003COCHISE                  61000KG082200000030
0400790110243        APACHE JUNCTION UNIF DIST 43  P O BOX 879              APACHE JCT        85220      021PINAL                    71000KG122200000030
0400840070447        ARLINGTON ELEM SCH DIST 47    STAR ROUTE 3 BOX 125     ARLINGTON         85322      013MARICOPA                 71000KG082200620020
0400870020453        ASH CREEK ELEM SCH DIST 53    STAR ROUTE BOX 260       PEARCE            85625      003COCHISE                  71000KG082200000030
0400910130231        ASH FORK UNF S D 31           P O BOX 247              ASH FORK          86320      025YAVAPAI                  71000KG122200000030
0400960070444        AVONDALE ELEM SCH DIST 44     235 WEST WESTERN AVE     AVONDALE          85323      013MARICOPA                 71000KG082200620020
0401000130220        BAGDAD UNIFIED SCH DIST 20    P O BOX 427              BAGDAD            86321      025YAVAPAI                  71000KG122200000030
0401050070431        BALSZ ELEM SCH DIST 31        4309 EAST BELLEVIEW ST   PHOENIX           85008      013MARICOPA                 71000KG082200620020
0401080130326        BEAVER CREEK EL S D 26        P O BOX 8                RIMROCK           86335      025YAVAPAI                  71000KG082200000030
0401110020409        BENSON ELEM SCH DIST 09       P O DRAWER B             BENSON            85602      003COCHISE                  71000KG082200000030
0401140020509        BENSON UNION HIGH S D 09      P O DRAWER B             BENSON            85602      003COCHISE                  7100009122200000030
0401160150576        BICENTENNIAL UHS 76           P O BOX 178              SALOME            85348      012                         7100009122200000030
0401180020202        BISBEE UNIFIED SCH DIST 02    P O DRAWER G             BISBEE            85603      003COCHISE                  71000KG122200000030
0401230060322        BLUE ELEM SCH DIST 22         N/A                      BLUE              85922      011GREENLEE                 71000KG082200000030
0401260050316        BONITA ELEM SCH DIST 16       SUNSET ROUTE BOX 1       WILLCOX           85643      009GRAHAM                   71000KG082200000030
0401290150426        BOUSE ELEM 26                 P O BOX S                BOUSE             85325      012                         71000KG082200000030
0401330020214        BOWIE UNIFIED SCH DIST 14     P O BOX 157              BOWIE             85605      003COCHISE                  71000KG122200000030
0401380070433        BUCKEYE ELEM SCH DIST 33      210 SOUTH SIXTH ST       BUCKEYE           85326      013MARICOPA                 71000KG082200620020
0401410070501        BUCKEYE UNION HIGH SCH DIST 01902 EASON AVE            BUCKEYE           85326      013MARICOPA                 7100009122200620020
0401460020268        SIERRA VISTA UNF S D 68       4001 FRY BOULEVARD       SIERRA VISTA      85635      003COCHISE                  71000KG122200000030
0401500080415        BULLHEAD CITY ELEM SCH DIST 151004 EAST HANCOCK ROAD   BULLHEAD CITY     86442      015MOHAVE                   71000KG082200000030
0401600130228        CAMP VERDE UNF S D 28         P O BOX 728              CAMP VERDE        86322      025YAVAPAI                  71000KG122200000030
0401650130350        CANON ELEM SCH DIST 50        P O BOX 89               BLACK CANYON      85324      025YAVAPAI                  71000KG082200000030
0401680070483        CARTWRIGHT ELEM SCH DIST 83   3401 NORTH 67TH AVE      PHOENIX           85033      013MARICOPA                 71000KG082200620020
0401710110404        CASA GRANDE EL S D 04         1460 NORTH PINAL AVENUE  CASA GRANDE       85222      021PINAL                    71000KG082200000030
0401740110502        CASA GRANDE UNION H S 02      616 EAST 10TH STREET     CASA GRANDE       85222      021PINAL                    7100009122200000030
0401760100216        CATALINA FOOTHILLS UNF S D 16 2101 EAST RIVER ROAD     TUCSON            85718      019PIMA                     71000KG122200852020
0401810090225        CEDAR UNIF SCH DIST 25        P O DRAWER 250           PINON             86010      017NAVAJO                   71000KG092200000030
0401830130314        CHAMPIE ELEM SCH DIST 14      STAR ROUTE               MORRISTOWN        85342      025YAVAPAI                  71000KG082200000030
0401870070280        CHANDLER UNF S D 80           500 WEST GALVESTON ST    CHANDLER          85224      013MARICOPA                 71000KG122200620020
0401920030305        CHEVELON BUTTE EL S D 05      BOX 1090 H C 62          WINSLOW           86047      005COCONINO                 71000KG062200000030
0401940010224        CHINLE UNIFIED S D - 24       P O BOX 587              CHINLE            86503      001APACHE                   71000KG122200000030
0402010080411        CHLORIDE ELEM SCH DIST 11     P O BOX 248              DOLAN SPRINGS     86441      015MOHAVE                   71000KG082200000030
0402110060203        CLIFTON UNIFIED SCH DIST 03   P O BOX 1567             CLIFTON           85533      011GREENLEE                 71000KG122200000030
0402130020326        COCHISE ELEM SCH DIST 26      P O BOX 1088             COCHISE           85606      003COCHISE                  71000KG082200000030
0402160080414        COLORADO CITY EL S D 14       P O BOX 268              COLORADO CITY     86021      015MOHAVE                   7100001082200000030
0402190010306        CONCHO ELEM SCH DIST 06       P O BOX 198              CONCHO            85924      001APACHE                   71000KG082200000030
0402220130317        CONGRESS ELEM SCH DIST 17     P O BOX 68               CONGRESS          85332      025YAVAPAI                  21000PK092200000030
0402250100339        CONTINENTAL EL S D 39         H C BOX 469 C            AMADO             85645      019PIMA                     71000KG082200852020
0402320110221        COOLIDGE UNF S D 02           520 WEST LINDBERGH       COOLIDGE          85228      021PINAL                    71000KG122200000030
0402370130406        COTTONWOOD-OAK CREEK EL 06    P O BOX 57               COTTONWOOD        86326      025YAVAPAI                  71000KG082200000030
0402400140413        CRANE ELEM SCH DIST 13        4250 WEST 16TH STREET    YUMA              85364      027YUMA                     71000KG082200000030
0402430070414        CREIGHTON ELEM SCH DIST 14    2702 EAST FLOWER ST      PHOENIX           85016      013MARICOPA                 71000KG082200620020
0402460130341        CROWN KING ELEM SCH DIST 41   P O BOX 172              CROWN KING        86343      025YAVAPAI                  71000KG082200000030
0402480050199        DAN HINTON ACCOM S D 99       150 EAST FOURTH SOUTH    PIMA              85543      009GRAHAM                   74000UGUG2200000030
0402490020345        DOUBLE ABODE EL S D 45        ROUTE 1 BOX 72           MC NEAL           85617      003COCHISE                  71000KG062200000030
0402530020227        DOUGLAS UNIFIED SCH DIST 27   P O BOX 1237             DOUGLAS           85607      003COCHISE                  71000KG122200000030
0402600060202        DUNCAN UNIFIED SCH DIST 02    P O BOX Q                DUNCAN            85534      011GREENLEE                 71000KG122200000030
0402690070289        DYSART UNIFIED SCH DIST 89    11405 NORTH DYSART       PEORIA            85345      013MARICOPA                 71000KG122200620020
0402710060345        EAGLE SCH DIST 45             P O BOX 631              CLIFTON           85533      011GREENLEE                 21000KG082200000030
0402740110100        MARY C O'BRIEN S D 00         RURAL STATION BOX 125    CASA GRANDE       85222      021PINAL                    74000KG062200000030
0402760020412        ELFRIDA ELEM SCH DIST 12      P O BOX 328              ELFRIDA           85610      003COCHISE                  71000KG082200000030
0402790110411        ELOY ELEM SCH DIST 11         1011 NORTH SUNSHINE BLVD ELOY              85231      021PINAL                    71000KG082200000030
0402820100337        EMPIRE ELEM SCH DIST 37       BOX 12A                  ELGIN             85611      019PIMA                     21000PK092200852020
0402840074204        FAR W DVL LEARNING CTR        19956 WEST MCDOWELL      BUCKEYE           85326      013MARICOPA                 44000KG124300000030
0402860030201        FLAGSTAFF UNF S D 01          701 NORTH KENDRICK ST    FLAGSTAFF         86001      005COCONINO                 71000KG122200000030
0402920110201        FLORENCE UNIFIED SCH DIST 01  P O BOX 829              FLORENCE          85232      021PINAL                    71000KG122200000030
0403010100208        FLOWING WELLS UNF S D 08      1556 WEST PRINCE ROAD    TUCSON            85705      019PIMA                     71000KG122200852020
0403030020381        FORREST ELEM SCH DIST 81      ROUTE 1 BOX 134          DOUGLAS           85607      003COCHISE                  21000PK082200000030
0403040070398        FOUNTAIN HILLS SCH DIST 98    P O BOX 18049            FOUNTAIN HILLS    85268      013MARICOPA                 71000KG082200620020
0403060070445        FOWLER ELEM SCH DIST 45       6707 WEST VAN BUREN ST   PHOENIX           85031      013MARICOPA                 71000KG082200620020
0403080030206        FREDONIA/MOCCASIN UNF S D 06  P O BOX 247              FREDONIA          86022      005COCONINO                 71000KG122200000030
0403150020100        FORT HUACHUCA ACCOMMODATION   P O DRAWER Q             FORT HUACHUCA     85613      003COCHISE                  74000KG082200000030
0403200050207        FT THOMAS UNF S D 07          P O BOX 28               FORT THOMAS       85536      009GRAHAM                   71000KG122200000030
0403240140432        GADSDEN ELEM SCH DIST 32      P O BOX 128              GADSDEN           85336      027YUMA                     71000KG082200000030
0403290010220        GANADO UNIF SCH DIST 20       N/A                      GANADO            86505      001APACHE                   71000KG122200000030
0403310070224        GILA BEND UNIFIED SCH DIST 24 P O BOX V                GILA BEND         85337      013MARICOPA                 71000KG122200620020
0403320040199        GILA CO SPEC SERVS 99         3000 SUNNYSLOPE          MIAMI             85539      007GILA                     74000UGUG2200000030
0403400070241        GILBERT UNIFIED SCH DIST 41   140 SOUTH GILBERT ROAD   GILBERT           85234      013MARICOPA                 71000KG122200620020
0403420070440        GLENDALE ELEM SCH DIST 040    5734 WEST GLENDALE AVE   GLENDALE          85301      013MARICOPA                 71000KG082200620020
0403450070505        GLENDALE UNION HI S D 05      7650 NORTH 43RD AVE      GLENDALE          85301      013MARICOPA                 7100009122200620020
0403500040201        GLOBE UNIFIED SCH DIST 01     501 ASH ST               GLOBE             85501      007GILA                     71000KG122200000030
0403530074101        GREATER PHOENIX CURRICULUM    415 EAST GRANT ST.       PHOENIX           85004      013MARICOPA                 44000KG124300000030
0403550030204        GRAND CANYON UNF S D 04       P O BOX 519              GRAND CANYON      86023      005COCONINO                 71000KG122200000030
0403580060199        GREENLEE CO ACO S D 99        P O BOX 1595             CLIFTON           85533      011GREENLEE                 74000KG122200000030
0403660080403        HACKBERRY ELEM SCH DIST 03    P O BOX 22               HACKBERRY         86411      015MOHAVE                   71000KG082200000030
0403730040241        HAYDEN/WINKELMAN UNF S D 41   P O BOX 409 THORNE AVE   WINKELMAN         85292      007GILA                     71000KG122200000030
0403780070360        HIGLEY ELEM SCH DIST 60       P O BOX 59               HIGLEY            85236      013MARICOPA                 71000KG082200620020
0403820090203        HOLBROOK UNIFIED SCH DIST 03  P O BOX 640              HOLBROOK          86025      017NAVAJO                   71000KG122200000030
0403860070199        HORSE MESA ACCOM SCH DIST 99  11 COOLIDGE ST           WILLIAMS AFB      852405000  013MARICOPA                 74000KG082200620020
0403870130222        HUMBOLDT UNF S D 22           P O DRAWER A             DEWEY             86327      025YAVAPAI                  71000KG122200000030
0403900140416        HYDER ELEM SCH DIST 16        P O BOX 1                DATELAND          85333      027YUMA                     71000KG082200000030
0403950100240        INDIAN OASIS UNF S D 40       P O BOX 248              SELLS             85634      019PIMA                     71000KG122200852020
0403960070405        ISAAC ELEM SCH DIST 05        1701 NORTH 35TH AVE      PHOENIX           85009      013MARICOPA                 71000KG082200620020
0403990110344        J O COMBS ELEM SCH DIST 44    ROUTE 2 BOX 33           QUEEN CREEK       85242      021PINAL                    71000KG082200000030
0404010090202        JOSEPH CY UNIF SCH DIST 02    P O BOX 8                JOSEPH CITY       86032      017NAVAJO                   71000KG122200000030
0404060090227        KAYENTA UNIFIED SCH DIST 27   P O BOX 337              KAYENTA           86033      017NAVAJO                   71000KG122200000030
0404140080404        KINGMAN ELEM SCH DIST 04      3033 MCDONALD            KINGMAN           86401      015MOHAVE                   71000KG082200000030
0404170130323        KIRKLAND ELEM SCH DIST 23     P O BOX 50               KIRKLAND          86332      025YAVAPAI                  71000KG062200000030
0404200050309        KLONDYKE ELEM SCH DIST 09     KLONDYKE STATION         KLONDYKE          85643      009GRAHAM                   21000PK092200000030
0404230070428        KYRENE ELEM SCH DIST 028      8700 SOUTH KYRENE ROAD   TEMPE             85284      013MARICOPA                 71000KG082200620020
0404280080201        LAKE HAVASU UNF 01            750 HAVASUPAI BOULEVARD  LAKE HAVASU CITY  86403      015MOHAVE                   71000KG122200000030
0404290070459        LAVEEN ELEM SCH DIST 59       P O BOX 29               LAVEEN            85339      013MARICOPA                 71000KG082200620020
0404320070425        LIBERTY ELEM SCH DIST 25      ROUTE 3 BOX 145          BUCKEYE           85326      013MARICOPA                 71000KG082200620020
0404380070479        LITCHFIELD ELEM SCH DIST 79   553 PLAZA CIRCLE SUITE A LITCHFIELD PK     85340      013MARICOPA                 71000KG082200620020
0404410080409        LITTLEFIELD ELEM S D 09       N/A                      LITTLEFIELD       86432      015MOHAVE                   71000KG062200000030
0404440070465        LITTLETON ELEM SCH DIST 65    P O BOX 280              CASHION           85329      013MARICOPA                 71000KG082200620020
0404470120409        LOCHIEL ELEM SCH DIST 09      222 PLUM STREET NO 310   NOGALES           85621      023SANTA CRUZ               21000PK082200000030
0404500070438        MADISON ELEM SCH DIST 38      5601 NORTH 16TH ST       PHOENIX           85016      013MARICOPA                 71000KG082200620020
0404530030310        MAINE CONSOLIDATED ELEM 10    P O BOX 7                PARKS             86018      005COCONINO                 71000KG062200000030
0404570110208        MAMMOTH/SAN MANUEL UNF S D 08 P O BOX 406              SAN MANUEL        85631      021PINAL                    71000KG122200000030
0404630100206        MARANA UNIF DIST 06           11279 WEST GRIER ROAD    MARANA            85238      019PIMA                     71000KG122200852020
0404720110220        MARICOPA UNF S D 20           P O BOX 310              MARICOPA          85239      021PINAL                    71000KG122200000030
0404770100351        MARY E DILL EL S D 51         SELLS STAR RTE BOX 870   TUCSON            85735      019PIMA                     71000KG082200852020
0404820130243        MAYER UNIFIED SCH DIST 43     P O BOX 189              MAYER             86333      025YAVAPAI                  71000KG122200000030
0404860010323        MC NARY ELEM SCH DIST 23      P O BOX 598              MCNARY            85930      001APACHE                   71000KG082200000030
0404920020355        MC NEAL ELEM SCH DIST 55      P O BOX 8                MC NEAL           85617      003COCHISE                  71000KG082200000030
0404970070204        MESA UNIFIED SCH DIST 04      549 NORTH STAPLEY DR     MESA              85203      013MARICOPA                 71000KG122200620020
0405030040240        MIAMI UNIFIED SCH DIST 40     DRAWER H                 MIAMI             85539      007GILA                     71000KG122200000030
0405070130504        MINGUS UNION HIGH S D 04      1801 EAST FIR STREET     COTTONWOOD        86326      025YAVAPAI                  7100009122200000030
0405100070386        MOBILE ELEM SCH DIST 86       P O BOX 209              MARICOPA          85239      013MARICOPA                 71000KG082200620020
0405170080530        MOHAVE UNION HIGH S D 30      323 GOLD STREET          KINGMAN           86401      015MOHAVE                   7100009122200000030
0405190080416        MOHAVE VLY ELEM S D 16        P O BOX 5070             MOHAVE VALLEY     86440      015MOHAVE                   71000KG082200000030
0405220140417        MOHAWK VLY EL S D 17          P O BOX 67               ROLL              85347      027YUMA                     71000KG082200000030
0405320060218        MORENCI UNIFIED SCH DIST 18   P O BOX 1060             MORENCI           85540      011GREENLEE                 71000KG122200000030
0405340070375        MORRISTOWN ELEM SCH DIST 75   P O BOX 98               MORRISTOWN        85342      013MARICOPA                 71000KG082200620020
0405360100100        ZIMMERMAN ACO S D 00          130 WEST CONGRESS ST     TUCSON            85701      019PIMA                     74000KG062200852020
0405370080424        MT TRUMBULL ELEM S D 24       515 WEST BEALE           KINGMAN           86401      015MOHAVE                   21000PK082200000030
0405400070421        MURPHY ELEM SCH DIST 21       2615 WEST BUCKEYE ROAD   PHOENIX           85009      013MARICOPA                 71000KG082200620020
0405430020323        NACO ELEM SCH DIST 23         P O BOX 397              NACO              85620      003COCHISE                  71000KG082200000030
0405460070381        NADABURG ELEM SCH DIST 81     P O BOX 100              WITTMAN           85361      013MARICOPA                 71000KG082200620020
0405500090199        RAINBOW FOUNDATION 99         602 MISSION LANE         HOLBROOK          86025      017NAVAJO                   74000UGUG2200000030
0405530120201        NOGALES UNIFIED SCH DIST 01   222 PLUM STREET          NOGALES           85621      023SANTA CRUZ               71000KG122200000030
0405640110302        ORACLE ELEM SCH DIST 02       P O BOX 588              ORACLE            85623      021PINAL                    71000KG092200000030
0405670070408        OSBORN ELEM SCH DIST 08       1220 WEST OSBORN ROAD    PHOENIX           85013      013MARICOPA                 71000KG082200620020
0405730080406        OWENS WHITNEY EL S D 06       N/A                      WIKIEUP           85360      015MOHAVE                   71000KG082200000030
0405760040333        TONTO BASIN SCH DIST 33       P O BOX 337              TONTO BASIN       85553      007GILA                     71000KG082200000030
0405820030208        PAGE UNIFIED SCH DIST 08      P O BOX 1927             PAGE              86040      005COCONINO                 71000KG122200000030
0405850070449        PALO VERDE ELEM SCH DIST 49   P O BOX 108              PALO VERDE        85343      013MARICOPA                 71000KG082200620020
0405880020349        PALOMINAS ELEM SCH DIST 49    P O BOX 38               HEREFORD          85615      003COCHISE                  71000KG082200000030
0405930070269        PARADISE VALLEY UNIF SCHS 69  15002 NORTH 32ND ST      PHOENIX           85032      013MARICOPA                 71000KG122200620020
0405980150227        PARKER UNIF 27                P O BOX 1089             PARKER            85344      012                         71000KG122200000030
0406000120406        PATAGONIA ELEM SCH DIST 06    P O BOX 295              PATAGONIA         85624      023SANTA CRUZ               71000KG062200000030
0406030120520        PATAGONIA UNION HIGH SCH 20   P O BOX 254              PATAGONIA         85624      023SANTA CRUZ               7100007122200000030
0406070040210        PAYSON UNIFIED SCH DIST 10    P O BOX 919              PAYSON            85547      007GILA                     71000KG122200000030
0406120080408        PEACH SPGS EL S D 08          P O BOX 138              PEACH SPRINGS     86434      015MOHAVE                   71000KG082200000030
0406150020422        PEARCE ELEM SCH DIST 22       P O DRAWER 127           PEARCE            85625      003COCHISE                  71000KG082200000030
0406210070492        PENDERGAST ELEM SCH DIST 092  3802 NORTH 91ST AVE      TOLLESON          85353      013MARICOPA                 71000KG082200620020
0406250070211        PEORIA UNIFIED SCH DIST 011   P O BOX 39               PEORIA            85345      013MARICOPA                 71000KG122200620020
0406300070401        PHOENIX ELEM SCH DIST 01      125 EAST LINCOLN ST      PHOENIX           85004      013MARICOPA                 71000KG082200620010
0406330070510        PHOENIX UNION HI SCH DIST 10  2526 WEST OSBORN ROAD    PHOENIX           85017      013MARICOPA                 7100009122200620010
0406360110433        PICACHO ELEM SCH DIST 33      P O BOX 8                PICACHO           85241      021PINAL                    71000KG082200000030
0406440050206        PIMA UNIFIED SCH DIST 06      P O BOX 429              PIMA              85543      009GRAHAM                   71000KG122200000030
0406460100199        PIMA SPEC PROGRAMS NO. 99     130 WEST CONGRESS STREET TUCSON            85701      019PIMA                     74000UGUG2200852020
0406480110199        PINAL CO SP ED SCH DIST 99    RURAL STATION BOX 125    CASA GRANDE       85222      021PINAL                    74000UGUG2200000030
0406510040312        PINE ELEM SCH DIST 12         P O BOX 1150             PINE              85544      007GILA                     71000KG082200000030
0406580090232        BLUE RIDGE UNIF SCHS 32       P O BOX 885              LAKESIDE          85929      017NAVAJO                   71000KG122200000030
0406630020464        POMERENE ELEM SCH DIST 64     P O BOX 7                POMERENE          85627      003COCHISE                  71000KG082200000030
0406730130201        PRESCOTT UNF S D 01           P O BOX 1231             PRESCOTT          86302      025YAVAPAI                  71000KG122200000030
0406740010218        PUERCO UNIFIED SCH DIST NO 18 P O BOX 68               SANDERS           86512      001APACHE                   71000KG122200000030
0406780150404        QUARTZSITE EL S D 04          P O BOX 130              EHRENBERG         85334      012                         71000KG082200000030
0406810070295        QUEEN CREEK UNIFIED DIST 95   ROUTE 1 BOX 24           QUEEN CREEK       85242      013MARICOPA                 71000KG102200620020
0406850110203        RAY UNIFIED SCH DIST 03       P O BOX 427              KEARNY            85237      021PINAL                    71000KG122200000030
0406870010227        RED MESA UNF SD 27            STAR ROUTE 1 BOX 40      TEEC NOS POS      86514      001APACHE                   71000KG122200000030
0406900110405        RED ROCK ELEM SCH DIST 05     P O BOX 56               RED ROCK          85245      021PINAL                    71000KG082200000030
0406930100344        REDINGTON ELEM SCH DIST 44    ROUTE 1 BOX 54           REDINGTON         85602      019PIMA                     21000KG082200852020
0406960040320        RICE ELEM SCH DIST 20         P O BOX 207              SAN CARLOS        85550      007GILA                     71000KG082200000030
0406990130347        RINCON ELEM SCH DIST 47       P O BOX 1108             WICKENBURG        85358      025YAVAPAI                  21000PK092200000030
0407020070402        RIVERSIDE ELEM SCH DIST 02    1414 SOUTH 51ST AVE      PHOENIX           85031      013MARICOPA                 71000KG082200620020
0407080070466        ROOSEVELT ELEM SCH DIST 66    6000 SOUTH SEVENTH ST    PHOENIX           85040      013MARICOPA                 71000KG082200620020
0407130010210        ROUND VLY UNF S D NO 10       P O BOX 610              SPRINGERVILLE     85938      001APACHE                   71000KG122200000030
0407140020366        RUCKER ELEM SCH DIST 66       P O BOX 618              ELFRIDA           85610      003COCHISE                  21000PK082200000030
0407170070390        RUTH FISHER EL S D 90         STAR ROUTE 2 BOX 583     TONOPAH           85354      013MARICOPA                 71000KG082200620020
0407200110418        SACATON ELEM SCH DIST 18      P O BOX 98               SACATON           85247      021PINAL                    71000KG082200000030
0407240050201        SAFFORD UNIF DIST 01          612 11TH ST              SAFFORD           85546      009GRAHAM                   71000KG122200000030
0407300100230        SAHUARITA UNF S D 30          P O BOX 26               SAHUARITA         85629      019PIMA                     71000KG122200852020
0407380100335        SAN FERNANDO EL S D 35        P O BOX 306              SASABE            85633      019PIMA                     71000KG082200852020
0407430020218        SAN SIMON UNF S D 18          P O BOX 38               SAN SIMON         85632      003COCHISE                  71000KG122200000030
0407500120328        SANTA CRUZ ELEM SCH DIST 28   PATAGONIA STAR RT BX 105 NOGALES           85621      023SANTA CRUZ               71000KG082200000030
0407520120235        SANTA CRUZ VLY UNIF SCHS 35   P O BOX 187              TUMACACORI        85640      023SANTA CRUZ               71000KG082200000030
0407530110540        SANTA CRUZ VLY UHS DIST 40    NINTH AND MAIN STREET    ELOY              85231      021PINAL                    7100009122200000030
0407570070248        SCOTTSDALE USD 48             3811 NORTH 44TH ST       PHOENIX           85018      013MARICOPA                 71000KG122200620020
0407630130240        SELIGMAN UNF S D 40           P O BOX 278              SELIGMAN          86337      025YAVAPAI                  71000KG122200000030
0407680070371        SENTINEL ELEM SCH DIST 71     STAR ROUTE BOX 57        DATELAND          85333      013MARICOPA                 71000KG082200620020
0407700090210        SHOW LOW UNIFIED SCH DIST 10  500 WEST OLD LINDEN ROAD SHOW LOW          85901      017NAVAJO                   71000KG122200000030
0407750070297        DEER VALLEY UNIF 97           20402 NORTH 15TH AVE     PHOENIX           85027      013MARICOPA                 71000KG122200620020
0407770130315        SKULL VALLEY EL S D 15        P O BOX 127              SKULL VALLEY      86338      025YAVAPAI                  71000KG082200000030
0407820090205        SNOWFLAKE UNF S D 05          P O BOX 1100             SNOWFLAKE         85937      017NAVAJO                   71000KG122200000030
0407860050305        SOLOMONVILLE EL S D 05        P O BOX 167              SOLOMON           85551      009GRAHAM                   71000KG082200000030
0407890140411        SOMERTON ELEM SCH DIST 11     P O BIN E                SOMERTON          85350      027YUMA                     71000KG082200000030
0407920120425        SONOITA ELEM SCH DIST 25      P O BOX 36               ELGIN             85611      023SANTA CRUZ               71000KG082200000030
0408020020221        SAINT DAVID UNF S D 21        P O BOX 70               ST DAVID          85630      003COCHISE                  71000KG122200000030
0408080010201        ST JOHNS UNF S D NO 1         P O BOX 3030             ST. JOHNS         85936      001APACHE                   71000KG122200000030
0408130110424        STANFIELD ELEM SCH DIST 24    P O BOX 578              STANFIELD         85272      021PINAL                    71000KG082200000030
0408170100212        SUNNYSIDE UNF S D 12          2238 EAST GINTER         TUCSON            85706      019PIMA                     71000KG122200852020
0408230110215        SUPERIOR UNF S D 15           199 LOBB AVENUE          SUPERIOR          85273      021PINAL                    71000KG122200000030
0408280100213        TANQUE VERDE UNIF SCH DIST 13 4201 NORTH MELPOMENE WAY TUCSON            85749      019PIMA                     71000KG092200852020
0408310070403        TEMPE ELEM SCH DIST 03        P O BOX 27708            TEMPE             85282      013MARICOPA                 71000KG082200620020
0408340070513        TEMPE UNION HIGH SCH DIST 13  500 WEST GUADALUPE ROAD  TEMPE             85283      013MARICOPA                 7100009122200620020
0408410050204        THATCHER UNIF S D 04          P O BOX 610              THATCHER          85552      009GRAHAM                   71000KG122200000030
0408430070394        PALOMA ELEM SCH DIST 94       STAR ROUTE BOX 172       GILA BEND         85337      013MARICOPA                 71000KG082200620020
0408460130335        HILLSIDE ELEM SCH DIST 35     BAGDAD RT HILLSIDE STA   BAGDAD            86321      025YAVAPAI                  71000KG062200000030
0408490070417        TOLLESON ELEM SCH DIST 17     P O BOX 278              TOLLESON          85353      013MARICOPA                 71000KG082200620020
0408520070514        TOLLESON UNION HI SCH DIST 14 9419 WEST VAN BUREN      TOLLESON          85353      013MARICOPA                 7100009122200620020
0408550110422        TOLTEC ELEM SCH DIST 22       ROUTE 1 BOX 390          ELOY              85231      021PINAL                    71000KG082200000030
0408600020201        TOMBSTONE UNF S D 01          P O BOX 1000             TOMBSTONE         85638      003COCHISE                  71000KG122200000030
0408640080412        TOPOCK ELEM SCH DIST 12       P O BOX 37               TOPOCK            86346      015MOHAVE                   21000PK082200000030
0408680030215        TUBA CITY UNF S D 15          P O BOX 67               TUBA CITY         86045      005COCONINO                 71000KG122200000030
0408800100201        TUCSON UNIFIED SCH DIST 01    P O BOX 40400            TUCSON            85717      019PIMA                     71000KG122200852020
0408820070462        UNION ELEM SCH DIST 62        3834 SOUTH 91ST AVE      TOLLESON          85353      013MARICOPA                 71000KG082200620020
0408850100320        VAIL ELEM SCH DIST 20         P O BOX 08               VAIL              85641      019PIMA                     71000KG082200852020
0408880080422        VALENTINE ELEM SCH DIST 22    STAR ROUTE BOX 50        PEACH SPRINGS     86434      015MOHAVE                   71000KG062200000030
0408910020522        VALLEY UNION HIGH S D 22      P O BOX 158              ELFRIDA           85610      003COCHISE                  7100009122200000030
0409030130307        WALNUT GROVE EL S D 07        STAR ROUTE               KIRKLAND          86332      025YAVAPAI                  71000KG082200000030
0409060070406        WASHINGTON ELEM SCH DIST 06   8610 NORTH 19TH AVE      PHOENIX           85021      013MARICOPA                 71000KG082200620020
0409090140424        WELLTON ELEM SCH DIST 24      P O BOX 517              WELLTON           85356      027YUMA                     71000KG082200000030
0409120150419        WENDEN ELEM S D 19            P O BOX 8                WENDEN            85357      012                         71000KG082200000030
0409160090220        WHITERIVER UNIF DIST 20       P O BOX 190              WHITERIVER        85941      017NAVAJO                   71000KG122200000030
0409190070209        WICKENBURG UNF S D            40 WEST YAVAPI ST        WICKENBURG        85358      013MARICOPA                 71000KG122200620020
0409250020213        WILLCOX UNIFIED SCH DIST 13   480 NORTH BISBEE AVE     WILLCOX           85643      003COCHISE                  71000KG122200000030
0409290070100        WILLIAMS AFB ACO 510,512      11 COOLIDGE ST           WILLIAMS AFB      852045000  013MARICOPA                 74000KG082200620020
0409310030202        WILLIAMS UNF S D 02           515 SOUTH NINTH ST       WILLIAMS          86046      005COCONINO                 71000KG122200000030
0409360130302        WILLIAMSON VLY EL S D 02      H C 30 BOX 1024          PRESCOTT          86301      025YAVAPAI                  21000PK092200000030
0409390070407        WILSON ELEM SCH DIST 07       2411 EAST BUCKEYE ROAD   PHOENIX           85034      013MARICOPA                 71000KG082200620020
0409430010208        WINDOW ROCK UNF S D NO 08     P O BOX 559              FT. DEFIANCE      86504      001APACHE                   71000KG122200000030
0409460090201        WINSLOW UNIFIED SCH DIST 01   P O BOX 580              WINSLOW           86047      017NAVAJO                   71000KG122200000030
0409510130352        YARNELL ELEM SCH DIST 52      P O BOX 575              YARNELL           85362      025YAVAPAI                  71000KG062200000030
0409540040305        YOUNG ELEM SCH DIST 05        P O BOX 390              YOUNG             85554      007GILA                     71000KG122200000030
0409570080413        YUCCA ELEM SCH DIST 13        P O BOX 128              YUCCA             86438      015MOHAVE                   71000KG062200000030
0409600140401        YUMA ELEM SCH DIST 01         450 SIXTH STREET         YUMA              85364      027YUMA                     71000KG082200000030
0409630140570        YUMA UNION HIGH SCH DIST 70   3150 AVENUE A            YUMA              85364      027YUMA                     7100009122200000030
0409700070177        SPEC EDUC ACCOMODATION NO 77  11 COOLIDGE STREET       WILLIAMS AFB      852405000  013MARICOPA                 74000KG082200620020
0409730020199        COCHISE CO SPEC EDUC COOP 99  118 SOUTH ARIZONA        BISBEE            85603      003COCHISE                  74000KG122200000030
050000101 01 000     DE WITT SCHOOL DISTRICT       204 N JACKSON            DEWITT            72042      001ARKANSAS                 61000KG121200000033
050000202 03 000     HAMBURG SCHOOL DISTRICT       503 E LINCOLN            HAMBURG           71646      003ASHLEY                   61000KG121200000033
050000303 06 000     TRI-COUNTY SCHOOL DISTRICT    N/A                      BIG FLAT          72617      005BAXTER                   61000KG121200000033
050000404 20         BENTON COUNTY CO OP           P.O. BOX 269             BENTONVILLE       72712      007BENTON                   1400000002300000030
050000505 20         OZARKS UNLIMITED RESOURCE COOP322 INDUSTRIAL PARK RD   HARRISON          726021990  009BOONE                    1400000002300000030
050000606 02 000     WARREN SCHOOL DISTRICT        803 N WALNUT             WARREN            71671      011BRADLEY                  61000KG121200000033
050000709 02 000     EUDORA SCHOOL DISTRICT        111 N ARCHER             EUDORA            71640      017CHICOT                   61000KG121200000033
050000810 20         DAWSON EDUCATION SERVICE COOP 1021 HENDERSON           ARKADELPHIA       71923      019CLARK                    1400000002300000030
050000911 01 000     CORNING SCHOOL DISTRICT       P O DRAWER 479           CORNING           72422      021CLAY                     61000KG121200000033
050001013 01 000     KINGSLAND SCHOOL DISTRICT     P O BX 126               KINGSLAND         71652      025CLEVELAND                61000KG121200000033
050001115 20         ARCH FORD EDUCATION SERVICE   209 SO BARRAMORE         MORRILTON         72110      029CONWAY                   1400000002300000030
050001216 13 000     RIVERSIDE SCHOOL DISTRICT     PO BX 178                LAKE CITY         72437      031CRAIGHEAD                61000KG121200000033
050001322 20         SOUTHEAST ARK ED SERVICE CO OPBOX 3507 UAM             MONTICELLO        71655      043DREW                     1400000002300000030
050001424 20         WESTERN ARKANSAS COOPERATIVE  RT BX 104                BRANCH            72928      047FRANKLIN                 1400000002300000030
050001527 05 000     SHERIDAN SCHOOL DISTRICT      400 N ROCK               SHERIDAN          72150      053GRANT                    61000KG121200000033
050001628 03 000     MARMADUKE SCHOOL DISTRICT     1010 GREYHOUND           MARMADUKE         72443      055GREENE                   61000KG121200000033
050001728 08 000     NORTHEAST ARK SP SCHOOL DIST  WEST COURT ST            PARAGOULD         72450      055GREENE                   61000KG121200000033
050001829 20         SOUTHWEST ARKANSAS COOPERATIVE513 E SHOVER             HOPE              71801      057HEMPSTEAD                1400000002300000030
050001932 01 000     BATESVILLE SCH DIST           330 E COLLEGE            BATESVILLE        72501      063INDEPENDENCE             61000KG121200000033
050002032 11 000     MIDLAND SCHOOL DISTRICT       P O BX 258               PLEASANT PLAINS   72568      063INDEPENDENCE             61000KG121200000033
050002133 06 000     IZARD COUNTY CONSOL SCH DIST  P O BX 588               VIOLET HILL       72584      065IZARD                    61000KG121200000033
050002233 20         NORTHCENTRAL ARK ED SERVICE CTPO BX 739                MELBOURNE         72556      065IZARD                    1400000002300000030
050002334 03 000     NEWPORT SCHOOL DISTRICT       REMMEL PARK              NEWPORT           72112      067JACKSON                  61000KG121200000033
050002435 20         ARKANSAS RIVER EDUCATION CO OPPO BX 4115               PINE BLUFF        71601      069JEFFERSON                1400000002300624010
050002535 99         ARKANSAS DEPT OF CORRECTION   PO BX 8707               PINE BLUFF        71611      069JEFFERSON                45069UGUG2300624010
050002635 05 000     PINE BLUFF SCHOOL DISTRICT    P O BX 7678              PINE BLUFF        71611      069JEFFERSON                61000KG121200624013
050002738 20         NORTHEAST ARK ED COOPERATIVE  PO BX 34                 STRAWBERRY        72469      075LAWRENCE                 1400000002300000030
050002840 03 000     STAR CITY SCHOOL DISTRICT     P O DRAWER 39            STAR CITY         71667      079LINCOLN                  61000KG121200000033
050002947 08 000     GOSNELL SCHOOL DISTRICT       600 HIGHWAY 181          BLYTHEVILLE       72319      093MISSISSIPPI              61000KG121200000033
050003050 08 000     NEVADA SCHOOL DISTRICT        P O BX 101               CALE              71828      099NEVADA                   61000KG121200000033
050003152 20         SOUTH CENTRAL SERVICE CO-OP   400B MAUL RD             CAMDEN            71701      103OUACHITA                 1400000002300000030
050003252 01 000     BEARDEN SCHOOL DISTRICT       P O BX 195               BEARDEN           71720      103OUACHITA                 61000KG121200000033
050003354 20         GREAT RIVERS COOPERATIVE      PO BX 2837-G             WEST HELENA       72390      107PHILLIPS                 1400000002300000030
050003456 20         CROWLEY'S RIDGE ED CO OP      PO BX 377                HARRISBURG        72432      111POINSETT                 1400000002300000030
050003560 91         ARKANSAS SCHOOL FOR BLIND     2600 W MARKHAM           LITTLE ROCK       72203      119PULASKI                  45119KG122300440010
050003660 92         ARKANSAS SCHOOL FOR DEAF      2400 W MARKHAM           LITTLE ROCK       72203      119PULASKI                  45119KG122300440010
050003767 20         DEQUEEN/MENA ED CO OP         101 N 9TH ST             DEQUEEN           71832      133SEVIER                   1400000002300000030
050003872 20         BOSTON MOUNTAINS ED CO OP     DRAWER 248               PRAIRIE GROVE     72753      143WASHINGTON               1400000002300258020
050003972 21         NORTHWEST ARK EDUCATION CO    409 N THOMPSON           SPRINGDALE        72764      143WASHINGTON               1400000002300258010
050004073 20         WILBUR D MILLS ED SER CO OP   PO BX DRAWER H           BEEBE             72012      145WHITE                    1400000002300000030
050004175 09 000     WESTERN YELL COUNTY           P O BX 214               HAVANA            72842      149YELL                     61000KG121200000033
050222057-01-000     ACORN SCH DIST                RT 3 PO BOX 450          MENA              71953      113POLK                     61000KG121200000030
050225017-01-000     ALMA SCH DIST                 PO BOX 1018              ALMA              72921      033CRAWFORD                 61000KG121200272020
050228005-01-000     ALPENA SCH DIST               PO BOX 76                ALPENA            72611      009BOONE                    61000KG121200000030
050231071-01-000     ALREAD SCH DIST               RT 3                     CLINTON           72031      141VAN BURKEN               6100001121200000030
050233035-01-000     ALTHEIMER SCH DIST            PO DRAWER N              ALTHEIMER         72004      069JEFFERSON                61000KG121200624020
050237024-01-000     ALTUS-DENNING SCH DIST        PO BOX 7                 ALTUS             72821      047FRANKLIN                 61000KG121200000030
050240010-01-000     AMITY SCH DIST                PO BOX 67                AMITY             71921      019CLARK                    61000KG121200000030
050243010-02-000     ARKADELPHIA SCH DIST          235 NORTH 11 ST          ARKADELPHIA       71923      019CLARK                    61000KG121200000030
050246021-01-000     ARKANSAS CITY SCH DIST        PO BOX 217               ARKANSAS CITY     71630      041DESHA                    61000KG121200000030
050255047-01-000     ARMOREL SCH DIST              PO BOX 7                 ARMOREL           72310      093MISSISSIPPI              61000KG121200000030
050258041-01-000     ASHDOWN SCH DIST              511 N SECOND ST          ASHDOWN           71822      081LITTLE RIVER             61000KG121200836020
050261058-01-000     ATKINS SCH DIST               AVE 2 NW PO 156          ATKINS            72823      115POPE                     61000KG121200000030
050267074-01-000     AUGUSTA SCH DIST              222 LOCUST ST            AUGUSTA           72006      147WOODRUFF                 61000KG121100000030
050270073-01-000     BALD KNOB SCH DIST            103 W PARK               BALD KNOB         72010      145WHITE                    61000KG121200000030
050273054-01-000     BARTON SCH DIST               PO BOX 200               LEXA              72355      107PHILLIPS                 61000KG121200000030
050279063-01-000     BAUXITE SCH DIST              PO BOX 345               BAUXITE           72011      125SALINE                   61000KG121200440020
050282016-01-000     BAY-BROWN SCH DIST            PO BOX 39                BAY               72411      031CRAIGHEAD                61000KG121200000030
050288073-02-000     BEEBE SCH DIST                1201 W CENTER ST         BEEBE             72012      145WHITE                    61000KG121200000030
050296063-02-000     BENTON                        PO BOX 939               BENTON            72015      125SALINE                   61000KG121200440020
050300063-06-000     PARON SCH DIST                GENERAL DELIVERY         PARON             72122      125SALINE                   61000KG121200440020
050303004-07-000     PEA RIDGE SCH DIST            PO BOX 6                 PEA RIDGE         72751      007BENTON                   61000KG121200258020
050306004-01-000     BENTONVILLE SCH DIST          400 NW SECOND ST         BENTONVILLE       72712      007BENTON                   61000KG121200258020
050309005-02-000     BERGMAN SCH DIST              N/A                      BERGMAN           72615      009BOONE                    61000KG121200000030
050315008-01-000     BERRYVILLE SCH DIST           PO BOX 408               BERRYVILLE        72616      015CARROLL                  61000KG121200000030
050321061-01-000     BIGGERS-REYNO SCH DIST        PO BOX 82                BIGGERS           72413      121RANDOLPH                 61000KG121200000030
050324030-01-000     BISMARCK SCH DIST             RT 1 BOX 208             BISMARCK          71929      059HOTSPRING                61000KG121200000030
050327038-01-000     BLACK ROCK SCH DIST           PO BOX 240               BLACK ROCK        72415      075LAWRENCE                 61000KG121200000030
050330029-01-000     BLEVINS SCH DIST              PO BOX 98                BLEVINS           71825      057HEMPSTEAD                61000KG121200000030
050332047-02-000     BLYTHEVILLE SCH DIST          PO BOX 1169              BLYTHEVILLE       72315      093MISSISSIPPI              61000KG121200000030
050342005-06-000     LEAD HILL SCH DIST            PO BOX A                 LEAD HILL         72644      009BOONE                    61000KG121200000030
050345042-01-000     BOONEVILLE SCH DIST           690 N KENNEDY ST         BOONEVILLE        72927      083LOGAN                    61000KG121200000030
050348073-03-000     BRADFORD SCH DIST             PO BOX B                 BRADFORD          72020      145WHITE                    61000KG121100000030
050351037-01-000     BRADLEY SCH DIST              PO BOX 308               BRADLEY           71826      073LAFAYETTE                61000KG121200000030
050357046-01-000     BRIGHT STAR SCH DIST          RT 1 BOX 222             DODDRIDGE         71834      091MILLER                   61000KG121200836020
050363048-01-000     BRINKLEY SCH DIST             800 S MAIN               BRINKLEY          72021      095MONROE                   61000KG121200000030
050364016-03-000     BROOKLAND SCHOOL DISTRICT     PO BOX 35                BROOKLAND         72417      031CRAIGHEAD                61000KG121200000030
050369063-03-000     BRYANT SCH DIST               200 NW 4TH ST            BRYANT            72022      125SALINE                   6100001121200440020
050371016-05-000     BUFFALO ISLAND CENTRAL SD     PO BOX 47                MONETTE           72447      031CRAIGHEAD                61000KG121200000030
050375043-04-000     CABOT SCH DIST                404 N 2ND ST             CABOT             72023      085LONOKE                   61000KG121200440020
050377049-01-000     CADDO HILLS SCH DIST          RT 1 PO BOX 249          NORMAN            71960      097MONTGOMERY               61000KG121200000030
050384033-01-000     CALICO ROCK SCH DIST          PO BOX 226               CALICO ROCK       72519      065IZARD                    61000KG121200000030
050387052-02-000     CAMDEN SCH DIST               PO BOX 578               CAMDEN            71701      103OUACHITA                 61000KG121200000030
050396043-03-000     CARLISLE SCH DIST             PO BOX O                 CARLISLE          72024      085LONOKE                   61000KG121200440020
050399020-01-000     CARTHAGE SCH DIST             PO BOX 16                CARTHAGE          71725      039DALLAS                   61000KG121200000030
050402016-02-000     WESTSIDE SCH DIST             RT 4 BOX 104             JONESBORO         72401      031CRAIGHEAD                61000KG121200000030
050405068-02-000     CAVE CITY SCH DIST            PO BOX 125               CAVE CITY         72521      135SHARP                    61000KG121200000030
050408017-02-000     CEDARVILLE SCH DIST           PO BOX 97                CEDARVILLE        72932      033CRAWFORD                 61000KG121200272020
050411046-02-000     GENOA CENTRAL                 RT 7 PO BOX 518          TEXARKANA         75502      091MILLER                   61000KG121200836020
050417073-04-000     CENTRAL SCH DIST              RT 1 BOX 383             JUDSONIA          72081      145WHITE                    61000KG121100000030
050420024-02-000     CHARLESTON SCH DIST           PO BOX 188               CHARLESTON        72933      047FRANKLIN                 61000KG121200000030
050429052-03-000     CHIDESTER SCH DIST            PO BOX 67                CHIDESTER         71726      103OUACHITA                 61000KG121200000030
050435048-02-000     CLARENDON SCH DIST            PO BOX 248               CLARENDON         72029      095MONROE                   61000KG121200000030
050437011-06-000     CLAY COUNTY CENTRAL SD        PO BOX 367               RECTOR            72461      021CLAY                     61000KG121200000030
050438036-01-000     CLARKSVILLE SCH DIST          1701 CLARK RD            CLARKSVILLE       72830      071JOHNSON                  61000KG121200000030
050441071-02-000     CLINTON SCH DIST              RT 2                     CLINTON           72031      141VAN BURKEN               61000KG121200000030
050453056-01-000     COMMON SCH DIST               RT 1 PO BOX 109          HARRISBURG        72432      111POINSETT                 61000KG121200000030
050456012-01-000     CONCORD SCH DIST              PO BOX 10                CONCORD           72523      023CLEBURNE                 61000KG121200000030
050459023-01-000     CONWAY SCH DIST               ADMIN BLDG PRINCE ST     CONWAY            72032      045FAULKNER                 61000KG121200440020
050462032-02-000     CORD-CHARLOTTE SCH DIST       PO BOX 7                 CHARLOTTE         72522      063INDEPENDENCE             61000KG121200000030
050468003-02-000     COTTER SCH DIST               PO BOX 70                COTTER            72626      005BAXTER                   61000KG121200000030
050471074-02-000     COTTON PLANT SCH DIST         CHURCH & PINE STS        COTTON PLANT      72036      147WOODRUFF                 61000KG121100000030
050474024-03-000     COUNTY LINE SCH DIST          PO BOX 158               BRANCH            72928      047FRANKLIN                 61000KG121200000030
050477018-01-000     CRAWFORDSVILLE SCH DIST       PO BOX 47                CRAWFORDSVL       72327      035CRITTENDEN               61000KG121200492020
050480002-01-000     CROSSETT SCH DIST             301 W 9TH ST             CROSSETT          71635      003ASHLEY                   61000KG121200000030
050483032-03-000     CUSHMAN SCH DIST              PO BOX 128               CUSHMAN           72526      063INDEPENDENCE             61000KG121200000030
050486026-01-000     CUTTER-MORNING STAR SCH DIST  RT 2 PO BOX 315          HOT SPRINGS       71901      051GARLAND                  61000KG121200000030
050489075-03-000     DANVILLE SCH DIST             PO BOX 548               DANVILLE          72833      149YELL                     61000KG121200000030
050493075-04-000     DARDANELLE                    DRAWER Q                 DARDANELLE        72834      149YELL                     61000KG121200000030
050498004-02-006     DECATUR SCH DIST              PO BOX 97                DECATUR           72722      007BENTON                   61000KG121200258020
050501051-01-000     DEER SCH DIST                 PO BOX 56                DEER              72628      101NEWTON                   61000KG121200000030
050504028-01-000     DELAPLAINE SCH DIST           BOX 68                   DELAPLAINE        72425      055GREENE                   61000KG121200000030
050507055-01-000     DELIGHT SCH DIST              PO BOX 8                 DELIGHT           71940      109PIKE                     61000KG121200000030
050511021-02-000     DELTA SPECIAL SCH DIST        PO BOX 41                ROHWER            71666      041DESHA                    61000KG121200000030
050513067-01-000     DE QUEEN SCH DIST             PO 950 101 N 9TH ST      DE QUEEN          71832      133SEVIER                   61000KG121200000030
050517009-01-000     DERMOTT SCH DIST              HIGHWAY 35 EAST          DERMOTT           71638      017CHICOT                   61000KG121200000030
050519059-01-000     DES ARC SCH DIST              RT 2 PO BOX A            DES ARC           72040      117PRAIRIE                  61000KG121200000030
050528021-03-000     DESHA-DREW SCH DIST           PO BOX 8                 TILLAR            71670      041DESHA                    61000KG121200000030
050531059-02-000     DEVALLS BLUFF SCH DIST        PO BOX 298               DEVALLS BLUFF     72041      117PRAIRIE                  61000KG121200000030
050534031-02-000     DIERKS SCH DIST               PO BOX 124               DIERKS            71833      061HOWARD                   61000KG121200000030
050541035-02-000     DOLLARWAY SCH DIST            4900 DOLLARWAY RD        PINE BLUFF        71602      069JEFFERSON                61000KG121200624020
050543058-02-000     DOVER SCH DIST                PO BOX 325               DOVER             72837      115POPE                     61000KG121200000030
050547022-02-000     DREW CENTRAL                  RT 4 PO BOX 10           MONTICELLO        71655      043DREW                     61000KG121200000030
050550021-04-000     DUMAS SCH DIST                701 MEADOW DR            DUMAS             71639      041DESHA                    61000KG121200000030
050555018-02-000     EARLE SCH DIST                PO BOX 637               EARLE             72331      035CRITTENDEN               61000KG121200492020
050558053-01-000     EAST END SCH DIST             PO DRAWER B              BIGELOW           72016      105PERRY                    61000KG121200000030
050567070-11-000     UNION SCH DIST                RT 3 BOX 121             EL DORADO         71730      139UNION                    61000KG121200000030
050568070-01-000     EL DORADO SCHOOL DISTRICT     700 COLUMBIA ST          EL DORADO         71730      139UNION                    61000KG121200000030
050574054-02-000     ELAINE                        PO BOX 456               ELAINE            72333      107PHILLIPS                 61000KG121200000030
050576072-01-000     ELKINS SCH DIST               PO BOX 322               ELKINS            72727      143WASHINGTON               61000KG121200258020
050579014-01-000     EMERSON SCH DIST              PO BOX 28                EMERSON           71740      027COLUMBIA                 61000KG121200000030
050582050-04-000     EMMET SCH DIST                PO BOX 334               EMMET             71835      099NEVADA                   61000KG121200000030
050585043-02-000     ENGLAND SCH DIST              PO BOX 10                ENGLAND           72046      085LONOKE                   61000KG121200440020
050588023-02-000     ENOLA SCH DIST                BOX 99                   ENOLA             72047      045FAULKNER                 61000KG121200440020
050591047-07-000     ETOWAH SCH DIST               PO BOX 5                 WEST RIDGE        72391      093MISSISSIPPI              61000KG121200000030
050597008-02-000     EUREKA SPRINGS SCH DIST       44 KINGS HIGHWAY         EUREKA SPG        72632      015CARROLL                  61000KG121200000030
050600068-03-000     EVENING SHADE SCH DIST        N/A                      EVENING SHADE     72532      135SHARP                    61000KG121200000030
050603068-06-000     POUGHKEEPSIE SCH DIST         N/A                      POUGHKEEPSIE      72569      135SHARP                    6100001121200000030
050606052-04-000     FAIRVIEW SCH DIST             2708 MT HOLLY RD         CAMDEN            71701      103OUACHITA                 61000KG121200000030
050609072-02-000     FARMINGTON SCH DIST           PO BOX 120               FARMINGTON        72730      143WASHINGTON               61000KG121200258020
050612072-03-000     FAYETTEVILLE SCH DIST         1000 W STONE             FAYETTEVILLE      72701      143WASHINGTON               61000KG121200258020
050615045-01-000     FLIPPIN SCH DIST              PO BOX 256               FLIPPIN           72634      089MARION                   61000KG121200000030
050621020-02-000     FORDYCE SCH DIST              PO BOX 722               FORDYCE           71742      039DALLAS                   61000KG121200000030
050624041-02-000     FOREMAN SCH DIST              PO BOX 280               FOREMAN           71836      081LITTLE RIVER             61000KG121200836020
050627062-01-000     FORREST CITY SCH DIST         334 GRAHAM ST            FORREST CITY      72335      123ST FRANCIS               61000KG121200000030
050633066-01-000     FORT SMITH SCH DIST           3205 GENNY LIND RD       FORT SMITH        72902      131SEBASTIAN                61000KG121200272010
050636046-03-000     FOUKE SCH DIST                PO BOX 20                FOUKE             71837      091MILLER                   61000KG121200836020
050639002-02-000     FOUNTAIN HILL SCH DIST        PO BOX 147               FOUNTAIN HILL     71642      003ASHLEY                   61000KG121200000030
050642026-02-000     FOUNTAIN LAKE SCH DIST        RT 7 BOX 220             HOT SPRINGS       71901      051GARLAND                  61000KG121200000030
050645075-05-000     FOURCHE VALLEY SCH DIST       PO BOX 60                BRIGGSVILLE       72828      149YELL                     61000KG121200000030
050651046-04-000     GARLAND SCH DIST              PO BOX 220               GARLAND           71839      091MILLER                   61000KG121200836020
050654004-03-000     GENTRY SCH DIST               PO BOX 159               GENTRY            72734      007BENTON                   61000KG121200258020
050657001-02-000     GILLETT SCH DIST              PO BOX 98                GILLETT           72042      001ARKANSAS                 61000KG121200000030
050660067-02-000     GILLHAM SCH DIST              PO BOX 30                GILLHAM           71841      133SEVIER                   61000KG121200000030
050663030-02-000     GLEN ROSE SCH DIST            RT 3 PO BOX 300          MALVERN           72104      059HOTSPRING                61000KG121200000030
050669055-02-000     GLENWOOD SCH DIST             PO BOX 27                GLENWOOD          71943      109PIKE                     61000KG121200000030
050675040-01-000     GOULD SCH DIST                PO DRAWER S              GOULD             71643      079LINCOLN                  61000KG121200000030
050678040-02-000     GRADY SCH DIST                PO BOX 238               GRADY             71644      079LINCOLN                  61000KG121200000030
050684004-04-000     GRAVETTE SCH DIST             PO BOX G                 GRAVETTE          72736      007BENTON                   61000KG121200258020
050687008-03-000     GREEN FOREST SCH DIST         PO DRAWER 40             GREEN FOREST      72638      015CARROLL                  61000KG121200000030
050690023-03-000     GREENBRIER SCH DIST           PO BOX 68                GREENBRIER        72058      045FAULKNER                 61000KG121200440020
050693072-04-000     GREENLAND SCH DIST            PO BOX 57                GREENLAND         72737      143WASHINGTON               61000KG121200258020
050699066-02-000     GREENWOOD SCH DIST            PO BOX 460               GREENWOOD         72936      131SEBASTIAN                61000KG121200272020
050702073-05-000     GRIFFITHVILLE SCH DIST        PO BOX 45                GRIFFITHVILLE     72060      145WHITE                    61000KG121100000030
050705034-02-000     GRUBBS SCH DIST               PO BOX 78                GRUBBS            72431      067JACKSON                  61000KG121200000030
050711010-03-000     GURDON SCH DIST               314 S THIRD ST           GURDON            71743      019CLARK                    61000KG121200000030
050714023-04-000     GUY-PERKINS SCH DIST          PO BOX 96                GUY               72061      045FAULKNER                 61000KG121200440020
050717066-03-000     HACKETT SCH DIST              PO BOX 188               HACKETT           72937      131SEBASTIAN                61000KG121200272020
050723007-01-000     HAMPTON SCH DIST              PO BOX 628               HAMPTON           71744      013CALHOUN                  61000KG121200000030
050729052-05-000     HARMONY GROVE SCH DIST        RT 3 BOX 644             CAMDEN            71701      103OUACHITA                 61000KG121200000030
050732063-04-000     HARMONY GROVE SCH DIST        614 HIGHWAY 229          BENTON            72015      125SALINE                   61000KG121200440020
050735056-02-000     HARRISBURG SCH DIST           PO BOX 47                HARRISBURG        72432      111POINSETT                 61000KG121200000030
050738005-03-000     HARRISON SCH DIST             400 S SYCAMORE           HARRISON          72601      009BOONE                    61000KG121200000030
050741066-04-000     HARTFORD SCH DIST             PO BOX 128               HARTFORD          72938      131SEBASTIAN                61000KG121200272020
050747057-02-000     HATFIELD SCH DIST             PO BOX 130               HATFIELD          71945      113POLK                     61000KG121200000030
050753059-03-000     HAZEN SCH DIST                PO BOX 358               HAZEN             72064      117PRAIRIE                  61000KG121200000030
050756012-02-000     HEBER SPRINGS SCH DIST        800 W MOORE ST           HEBER SPRINGS     72543      023CLEBURNE                 61000KG121200000030
050759012-05-000     WILBURN SCH DIST              PO BOX 1000              WILBURN           72179      023CLEBURNE                 61000KG121200000030
050762058-03-000     HECTOR SCH DIST               RT 1 PO BOX 24           HECTOR            72843      115POPE                     61000KG121200000030
050765054-05-000     LAKE VIEW SCH DIST            LAKEVIEW RT 1 BOX 221    HELENA            72342      107PHILLIPS                 61000KG121200000030
050768054-03-000     HELENA-WEST HELENA SCH DIST   PO 369                   HELENA            72342      107PHILLIPS                 61000KG121200000030
050771006-01-000     HERMITAGE SCH DIST            PO BOX 38                HERMITAGE         71647      011BRADLEY                  61000KG121200000030
050774019-01-000     CROSS COUNTY SCH DIST NO 7    PO BOX 158               CHERRY VALLEY     72324      037CROSS                    61000KG121200000030
050777068-04-000     HIGHLAND SCH DIST             PO BOX 419               HARDY             72542      135SHARP                    61000KG121200000030
050780048-03-000     HOLLY GROVE SCH DIST          PO BOX G                 HOLLY GROVE       72069      095MONROE                   61000KG121200000030
050784029-03-000     HOPE SCH DIST                 117 E SECOND             HOPE              71801      057HEMPSTEAD                61000KG121200000030
050786067-03-000     HORATIO SCH DIST              PO BOX 435               HORATIO           71842      133SEVIER                   61000KG121200000030
050789026-03-000     HOT SPRINGS SCH DIST          140 E BORDER ST          HOT SPRINGS       71901      051GARLAND                  61000KG121200000030
050792026-04-000     JESSIEVILLE SCH DIST          PO BOX 4                 JESSIEVILLE       71949      051GARLAND                  61000KG121200000030
050799038-04-000     HOXIE SCHOOL DIST             PO BOX 40                HOXIE             72433      075LAWRENCE                 61000KG121200000030
050801062-02-000     HUGHES SCH DIST               PO BOX 9                 HUGHES            72348      123ST FRANCIS               61000KG121200000030
050804018-03-000     WEST MEMPHIS SCH DIST         PO BOX 826               WEST MEMPHIS      72301      035CRITTENDEN               61000KG121200492020
050807043-05-000     HUMNOKE SCH DIST              PO BOX 47                HUMNOKE           72072      085LONOKE                   61000KG121200440020
050810035-03-000     HUMPHREY SCH DIST             PO BOX 190               HUMPHREY          72073      069JEFFERSON                61000KG121200624020
050813044-01-000     HUNTSVILLE SCH DIST           PO BOX F                 HUNTSVILLE        72740      087MADISON                  61000KG121200000030
050816070-02-000     HUTTIG SCH DIST               PO BOX 407               HUTTIG            71747      139UNION                    61000KG121200000030
050824051-02-000     JASPER SCHOOL DISTRICT        PO BOX 446               JASPER            72641      101NEWTON                   61000KG121200000030
050828016-08-000     JONESBORO SCH DIST            1307 S FLYNT             JONESBORO         72401      031CRAIGHEAD                61000KG121200000030
050831073-06-000     JUDSONIA SCH DIST             RT 2 BOX 206             JUDSONIA          72081      145WHITE                    61000KG121100000030
050834070-03-000     JUNCTION CITY SCH DIST        PO BOX H                 JUNCTION CITY     71749      139UNION                    61000KG121200000030
050840073-07-000     KENSETT SCH DIST              PO BOX 419               KENSETT           72082      145WHITE                    61000KG121100000030
050846044-02-000     KINGSTON SCH DIST             PO BOX 149               KINGSTON          72742      087MADISON                  61000KG121200000030
050849055-03-000     KIRBY SCH DIST                PO BOX 8                 KIRBY             71950      109PIKE                     61000KG121200000030
050861026-05-000     LAKE HAMILTON SCH DIST        RT 1 PO BOX 106B         PEARCY            71964      051GARLAND                  61000KG121200000030
050864009-03-000     LAKESIDE SCH DIST             600 N LAKESHORE          LAKE VILLAGE      71653      017CHICOT                   61000KG121200000030
050867026-06-000     LAKESIDE SCH DIST             4429 MALVERN             HOT SPRINGS       71901      051GARLAND                  61000KG121200000030
050870036-04-000     LAMAR SCH DIST                PO BOX 208               LAMAR             72846      071JOHNSON                  61000KG121200000030
050873066-05-000     LAVACA SCH DIST               PO BOX 8                 LAVACA            72941      131SEBASTIAN                61000KG121200272020
050882027-02-000     LEOLA SCH DIST                PO BOX 96                LEOLA             72084      053GRANT                    61000KG121200000030
050885056-03-000     LEPANTO SCH DIST              PO BOX 4760              LEPANTO           72354      111POINSETT                 61000KG121200000030
050888065-01-000     LESLIE SCH DIST               PO BOX 160               LESLIE            72645      129SEARCY                   61000KG121200000030
050891037-02-000     LEWISVILLE SCH DIST           PO BOX 400               LEWISVILLE        71845      073LAFAYETTE                61000KG121200000030
050894072-05-000     LINCOLN SCH DIST              PO BOX 479               LINCOLN           72744      143WASHINGTON               61000KG121200258020
050900060-01-000     LITTLE ROCK SCH DIST          810 W MARKHAM ST         LITTLE ROCK       72201      119PULASKI                  61000KG121200440010
050903067-04-000     LOCKESBURG SCH DIST           PO BOX 88                LOCKESBURG        71846      133SEVIER                   61000KG121200000030
050906043-01-000     LONOKE SCH DIST               411 HOLLY ST             LONOKE            72086      085LONOKE                   61000KG121200440020
050909047-11-000     LUXORA SCH DIST               PO BOX 130               LUXORA            72358      093MISSISSIPPI              61000KG121200000030
050912038-05-000     LYNN SCH DIST                 PO BOX 338               LYNN              72440      075LAWRENCE                 61000KG121200000030
050915042-02-000     MAGAZINE SCH DIST             PO BOX 218               MAGAZINE          72943      083LOGAN                    61000KG121200000030
